:020000040800F2
:1000000030070020350200086529000899240008FF
:10001000612900086D13000879290008000000001C
:100020000000000000000000000000006D29000832
:100030007D130008000000006929000871290008EC
:100040004F0200084F0200084F0200084F0200084C
:100050004F0200084F0200084F0200084F0200083C
:100060004F0200084F0200084F0200084F0200082C
:100070004F0200084F0200084F0200084F0200081C
:100080004F0200084F0200084F0200084F0200080C
:100090004F0200084F0200084F0200084F020008FC
:1000A0004F0200084F0200084F0200084F020008EC
:1000B0004F0200084F0200084F0200084F020008DC
:1000C0004F0200084F0200084F0200084F020008CC
:1000D0004F0200084F0200084F0200084F020008BC
:1000E0004F0200084F0200084F02000800F002F81B
:1000F00000F090F80AA090E8000C82448344AAF132
:100100000107DA4501D100F085F8AFF2090EBAE82F
:100110000F0013F0010F18BFFB1A43F0010318473B
:10012000C43A0000E43A0000103A24BF78C878C10D
:10013000FAD8520724BF30C830C144BF04680C60ED
:10014000704700000023002400250026103A28BF35
:1001500078C1FBD8520728BF30C148BF0B60704739
:100160006E2900F03B81702900F07D82662903F042
:100170008584652903F08284672903F07F846129DF
:1001800003F07E8403681B0A28BF41F080016929BF
:1001900000F0E880642900F0E580752900F0E28035
:1001A0006F2900F00B82782900F04982E92900F0DC
:1001B000A581E42900F0A281F52900F09F81EF29B3
:1001C00000F00882F82900F048820368DB0928BFA4
:1001D00041F08001632900F04987732900F04E87C0
:1001E000E32900F05987F32900F05E87002070476B
:1001F0001FB500F0AFFF04000020002103F028FC31
:10020000401C60600020002103F00CFCE0601FBD7A
:1002100010B510BD00F070FF1146FFF7E9FF02F0C6
:10022000E5FD01F04DF803B4FFF7F2FF03BC01F068
:1002300095F800000948804709480047FEE7FEE7B7
:10024000FEE7FEE7FEE7FEE7FEE7FEE7FEE7FEE786
:1002500004480549054A064B704700007529000807
:10026000ED0000083001002030070020300300209E
:10027000300300201CB50C46064B7B4469460090B9
:10028000204600F0C4F804460020694600F0D2F889
:1002900020461CBDB701000070477047704770B51D
:1002A000044685690068C10601D5302600E0202695
:1002B000C00707D070BDD4E9012130469047206ABD
:1002C000401C20626D1EF6D570BD70B50446856970
:1002D0000078C00707D170BDD4E9012120209047E4
:1002E000206A401C20626D1EF6D570BD09684A0563
:1002F00001D540B27047C905FCD500B27047096806
:100300004A0501D5C0B27047C905FCD580B2704717
:1003100070B50C460546012A05D02878800600D520
:10032000EA69002302E0012305E05B1C934202D24C
:10033000E05C0028F9D1A869E618C01AA861286A0B
:10034000184428622846FFF7AAFF04E0D5E90121F6
:1003500014F8010B9047B442F8D32846FFF7B5FFD5
:1003600070BD00002DE9F041064600241068752993
:10037000314616A510D0FFF7B9FF002802DA404237
:1003800013A507E031688A0701D512A502E04907E5
:1003900004D511A5012401E0FFF7B1FF00210A22D5
:1003A00006F1240709E0B0FBF2FCB0FBF2F302FB1C
:1003B0001C00303078541846491C0028F3D12346DD
:1003C0002A463046BDE8F04100F061BA0000000066
:1003D0002D0000002B0000002000000011680268C2
:1003E000006A530501D508700AE0D30501D50880DD
:1003F00006E0130603D5C217C1E9000200E0086059
:100400000120704701694A1C02610878704700B5F5
:100410008FB0CDE901310021059105497944CDE93D
:1004200003101146684600F029F90FB000BD000026
:10043000E5FFFFFF0A6802F8010B0A607047000041
:100440002DE9FF5F15468A460446DFF8AC80F84484
:100450000027D8E900103E46CDE9001010E03AF838
:1004600016106A4602A800F023FE411C07D021782E
:10047000890603D5E269391891420DD80744761CE4
:100480002078800602D5E069B84205DDAE42E6DBA1
:100490003AF816000028E2D1A069C01BA0612046EE
:1004A000FFF7FDFED8E90010CDE90010002017E0AD
:1004B0003AF818106A4602A800F0FAFDB0F1FF3FC2
:1004C00081460BD000250DF1080B05E0D4E9012190
:1004D0001BF8050090476D1C4D45F7D308F101004E
:1004E000B0428046E4DB206A384420622046FFF7B1
:1004F000ECFEBDE8FF9F0000323600002DE9F04120
:100500008046D21D22F007020025D2E90002F5291B
:1005100015A614D0011E72F1000106DA0023D0EBFB
:10052000030063EB020211A608E0D8F800108B0765
:1005300001D50FA602E0490701D50EA601251146F7
:10054000002408F1240704E000F05CF930323A5549
:10055000641C50EA0102F7D12B4632462146404640
:10056000BDE8F04100F093B9000000002D0000004C
:100570002B0000002000000030B4002100F1240412
:1005800008E002F00705D208303542EA4372DB0882
:100590006554491C52EA0305F3D10468002310A2F4
:1005A000250708D504F020040C4304D0C4690123B6
:1005B0000CA2641EC46130BC00F069B910B50446D9
:1005C00021461068FFF79BFE02462046BDE810401A
:1005D0000023D1E7D21D22F00701D1E90023CBE7A8
:1005E0000000000030000000F0B40D46018809054D
:1005F00002D5214C7C4402E01F4C7C440E34002187
:1006000000F1240608E002F00F071209E75D42EA54
:1006100003721B097754491C52EA0307F3D102788D
:100620000023120704D5702D06D009B1022311341E
:100630002246F0BC00F02BB901231034F8E770B566
:1006400004460D4621461068FFF759FE024629462A
:100650002046BDE870400023C6E7D21D22F0070304
:10066000D3E90023C0E70368126843F02003036066
:100670000823C3610023B7E7943400002DE9F05F3D
:10068000894604464FF0000ADFF874B1FB44C0F815
:1006900020A02046E1688847002874D0252806D08D
:1006A000D4E901219047206A401C2062F1E700262E
:1006B0005F462046E16888472028054607DB312D44
:1006C00005D2781910F8200C08B10643F1E7B007FD
:1006D00001D526F00406C4F81CA00027C4F818A011
:1006E0002A2D09D0284603F095F938B304EB870882
:1006F000303DC8F8185019E059F8041B204604EBA7
:1007000087029161E1688847012F054618D1E069A9
:10071000002820DA26F020061DE0D8F8180000EBAB
:10072000800005EB40003038C8F818002046E1682A
:100730008847054603F06EF90028EED1012F0AD054
:100740002E2D08D12046E16888477F1C0546022FE0
:1007500046F02006C4DBA069002803DA404246F0D8
:100760000106A061F00701D026F010066C2D0BD019
:10077000682D09D04C2D39D06A2D35D0742D35D047
:100780007A2D33D016E038E0E1682F4620468847BE
:10079000B842054609D16C2F26D04FF48060E1683D
:1007A000064320468847054604E06C2F1AD04FF4D4
:1007B000807006430DB3A5F14100192802D82035F9
:1007C00046F400664A462946204626604E46FFF714
:1007D000C7FC80B101280BD0F61D26F0070000F100
:1007E000080956E74020E4E78020D8E70020D6E754
:1007F00006F104094DE7284652E7206ABDE8F09F5C
:100800002434000030B5B0F10A0271F100034FEA60
:10081000900E4EEA817EB0EB0E0061EB91014FEA43
:10082000101E4EEA017E10EB0E0041EB11114FEA53
:10083000102E4EEA016E10EB0E0041EB11214FEA33
:10084000104E4EEA014E10EB0E0041EB11414018E4
:1008500041F100014FEAD00040EA41704FEAD10176
:100860004FEA810444EA907410EB800544EB0104E4
:100870006D1944EB0404521BA3414FF0000348BF21
:100880000A3200D530BD401C41F1000130BD2DE9D8
:10089000F0470D4699469246044600F12408016847
:1008A000880604D5E06921F01001216000E00120F4
:1008B000A84201DD471B00E00027A1697A1902EB7D
:1008C0000900081AA0612078C00602D42046FFF76C
:1008D000E6FC002608E0D4E901211AF8060090475A
:1008E000206A401C761C20624E45F4DB2078C0064E
:1008F0000AD52046FFF7D3FC06E0D4E901213020D9
:100900009047206A401C2062381EA7F10107F4DCE2
:1009100007E0D4E9012118F805009047206A401C3F
:100920002062281EA5F10105F3DC2046FFF7CDFC6F
:100930002078000602D50220BDE8F0870120FBE701
:100940002DE9FF4F0C461E464FF0FF378BB0D2E922
:100950000001DDF860800A908A46C1F30A5505B9A6
:100960003D46002108464FF00000BAF1000F00F4A8
:10097000400005DA00EB80004FF4400101EA50002E
:100980004FEA9059B9F1010F00DDB9460A9850EAD3
:100990004A000ED044F61050A5F2FF3545432F14FF
:1009A000B8F1000F1ED07542291E1EDDC9F10002EC
:1009B0001CE0B8F1010F4FF0000001D0302103E03E
:1009C000F24305E02154401CB042FBDB30460022DC
:1009D000002121540B99C1F80880C1E900200FB013
:1009E000BDE8F08FBD1B6D1CDEE74A4600DA6942A8
:1009F00006A800F0F3FB06AB93E8070003AB83E81F
:100A0000070050460A9902F029FC8DE80700A0F57E
:100A100000501F3800900398002D0ADD42F21F019C
:100A20004A460844002303A90390684602F092FE58
:100A300009E0A0F500504A461F38002303A903909F
:100A4000684602F09CFE8DE807000004000C03D00D
:100A50004FF0FF30410800E01046B8F1000F03D01E
:100A60000022009215461EE0751E05D4FFF7CAFE4F
:100A7000303262556D1EF9D5B3460122084302D0CB
:100A800000227F1C04E02078302801D100227F1E44
:100A9000002A099784D01DE0112D07DAFFF7B2FE76
:100AA000303262556D1C50EA0102F5D1084302D084
:100AB0000098C8B10EE00021681E05E0235C625C6E
:100AC00063542254401E491C8142F7DBAB46A81BED
:100AD000401E0990002004F80B000B98099AC0F8FA
:100AE0000880C0E9002B7AE711264FF0000857E78D
:100AF0002DE9F04F88460446D21D22F0070191B03F
:100B0000D1E90001CDE90A0102F070FF02460B981D
:100B1000C00F01D02D2007E02068810701D52B20D0
:100B200002E0202101EAC000032A099001D0072A2F
:100B300005DB03464146204600F010FB0BE1207820
:100B4000800601D5E06900E00620B8F1650F814616
:100B500006D0B8F1660F18D0B8F1670F70D131E048
:100B60000020B9F1110F009001DB112301E009F120
:100B700001030AAA01A90CA8FFF7E2FEDDE90C7047
:100B8000002609F10105834647E001204B4600900D
:100B90004FF000470AAA01A90CA8FFF7D1FEDDE932
:100BA0000DB00C995D46002610B909F101000D1831
:100BB000B9EB050003D4C0F1FF3609F10105A5EB3F
:100BC00009002BE0B9F1010F01DA4FF00109002013
:100BD000B9F1110F0090484601DD112300E00346F2
:100BE0000AAA01A90CA8FFF7ABFEDDE90C704D467F
:100BF00000268346207800070AD4AB4500DA5D461C
:100C000001A8012D04DD411911F8011C302907D07C
:100C10004F4502DA17F1040F04DA012082460FE093
:100C20006D1EEEE7002F02DCED1B3E4403E0781C56
:100C3000A84200DD7D1CB81B00F1010A4FF00047FF
:100C40002078000703D4AA4501DB4FF0FF3A0021CA
:100C5000B7F1004F0DF143088DF8431024D0022066
:100C60002B23002F01DA7F422D230A21021EA0F13F
:100C7000010000DC5FB197FBF1FC97FBF1F201FB97
:100C80001C7C17460CF1300C08F801CDEEE7A8F1FA
:100C9000010003702188090501D5452100E0652187
:100CA000A0F1010800F8011C09980FA9A1EB0807A1
:100CB000FF1D00B10120411901EBEA70A169384420
:100CC000081A401EA0612078C00602D42046FFF713
:100CD000E6FA099828B1D4E901219047206A401C1E
:100CE00020622078C00622D52046FFF7D8FA1EE001
:100CF000002E04DBB34502DD01A8805D00E030205A
:100D0000D4E901219047206A401C2062761CAAF198
:100D100001005FEA000A0AD100F01CFAC06801680D
:100D2000405CD4E901219047206A401C2062281EC3
:100D3000A5F10105DCDC07E0D4E9012118F8010B7D
:100D40009047206A401C2062381EA7F10107F3DC9F
:100D50002046FFF7BAFA032011B041E62DE9F04F23
:100D600004460D46D21D22F0070089B0D0E9009755
:100D70004846394602F03AFE0246F80F01D02D23CC
:100D800007E02068810701D52B2302E0202101EA3A
:100D9000C0038DF820300BB1012000E00020032AB1
:100DA000824601D0072A04DB2946204600F0D6F906
:100DB0003FE12078800601D40D2500E0E569C7F306
:100DC0000A560D2D49DA00214FEA175B08464FF00D
:100DD0000000002F00F4400007DA00EB80004FF421
:100DE000400100EBD07001EA60008115012901DDAE
:100DF0004FF0FF3100224FEA850CBCF1180F06D3EB
:100E00001346ACF118004FF08052C24003E04FF49B
:100E1000801323FA0CF30CF10C0CBCF1200F04D35B
:100E2000ACF1200C09FA0CF001E007FA0CF00029F3
:100E30004FF0004801DD18B90FE00ED140450CD34A
:100E400019EB02095F4121B9404502D19F4329EACC
:100E50000209BBEB175F00D0761C2088000502D585
:100E60007B48784402E07A487844193808AA30234D
:100E700002F80A30037C0AF10101002E0AF1020A8D
:100E800053546A4602DC4FF0300101E04FF031016B
:100E90004FF001088DF8001002D0A6F2FF3603E0F3
:100EA00059EA470100D06B4E002D02DC217809077A
:100EB00004D54FF002082E218DF80110C446002100
:100EC0000BE0C7F303433F01C35C491C6D1E02F8EE
:100ED0000830052908F1010801DA002DF1DC0021B4
:100EE0000CE000EB1973491C1B786D1E082902F8F1
:100EF00008304FEA091908F1010801DA002DF0DC89
:100F000021688B0602D516E0A8F10108E04505DD51
:100F100002EB080313F8013C302BF5D0B8F1000FB9
:100F200009DD02EB080313F8013C2E2B03D109075E
:100F300001D4A8F10108002D05DD3E2102F80810BA
:100F40006D1E08F10108407C002E02F8080008F12F
:100F5000010804DA2D20764202F8080002E02B2076
:100F600002F808000A214FF47A70864208F101085D
:100F70000BDB96FBF0F3303302F8083096FBF0F30E
:100F800008F1010800FB136601E0642E0CDB64200D
:100F900096FBF0F3303302F8083096FBF0F308F1DB
:100FA000010800FB136601E00A2E06DB96FBF1F058
:100FB000303002F8080008F1010896FBF1F001FB5F
:100FC0001060303002F80800A16908F1010808EB50
:100FD000050202EB0A00081AA0612078C00602D4BC
:100FE0002046FFF75CF9216A08AE01EB0A00206297
:100FF00004E0D4E9012116F8010B9047BAF1010A87
:10100000F7D22078C00602D52046FFF748F96E4691
:1010100009E016F8010B3E280FD0D4E901219047D2
:10102000206A401C2062B8F10108F2D22046FFF786
:101030004CF909B00320BDE8F08F206A28442062F3
:1010400003E0D4E90121302090476D1EEBD3F8E78F
:10105000722C000002FCFFFF10B5436913B1AFF31F
:10106000008001E0FFF754F9012010BD127800F173
:1010700024010A7000224A700122EDE711684FF046
:10108000FF32E9E710B5436913B1AFF3008001E027
:10109000FFF7D6F9012010BD128800F124018284E7
:1010A0000022C2840122EDE711684FF0FF32E9E728
:1010B0002DE9F04116460C46054600F043F803685A
:1010C00093F80101012807D0FF2C12D8185D80B1D8
:1010D00001202C70BDE8F081D3F80701324621468B
:1010E00003F20713C7182846BC46BDE8F0410023A9
:1010F00060474FF0FF30EDE7754600F0EBF8AE4685
:1011000005006946534620F00700854618B020B513
:10111000FFF79EF8BDE820404FF000064FF00007B3
:101120004FF000084FF0000BAC46ACE8C009ACE84B
:10113000C009ACE8C009ACE8C00921F007018D4640
:101140007047000010B500F005F8001D10BD00BF8D
:101150000129000000487047300000202DE9F041CF
:101160001F46044603260168072A01F4006004DBD9
:1011700008B116A505E016A503E008B115A500E025
:1011800015A521F010002060A069C01EA0610FB15C
:10119000401EA0612046FFF782F84FB1D4E901213B
:1011A00038469047206A401C2062C01C206206E03E
:1011B000206AFAE7D4E9012115F8010B9047761E61
:1011C000F8D22046FFF781F8BDE8F0814E414E008D
:1011D0006E616E00494E4600696E66002DE9F0476B
:1011E000814616468AB0354878440DC88DE80D0012
:1011F00032487844801C03AC0DC884E80D0041F6E9
:101200009B300844372190FBF1F290FBF1F5A5F1FA
:10121000800501FB12041B3C02D56442012000E062
:101220000020DFF898A080460027FA44AAF1BE0A01
:101230000EE0E0070AD03246684607EB470101237B
:101240000AEB810102F09BFA8DE8070064107F1C15
:10125000002CEED1194F7F44AE3F19E0E80715D0BE
:1012600007EB04100DF1180A90E80E008AE80E0052
:10127000C068F04201D1981908903246012306A9AE
:1012800003A802F07CFA03AB83E807006D10641C2E
:10129000002DE3D14FF0010332466946B8F1000F4B
:1012A00003A802D002F056FA01E002F068FAC9E998
:1012B0000001C9F808200AB0BDE8F0877C290000C9
:1012C00010B50446AFF300802046BDE81040FEF79D
:1012D000AABF000000487047100000204FF0013CFA
:1012E00050F8042B51F8043B9A4221D1A2EB0C0395
:1012F000934313EACC1317D150F8042B51F8043B55
:101300009A4215D1A2EB0C03934313EACC130BD1F1
:1013100050F8042B51F8043B9A4209D1A2EB0C037C
:10132000934313EACC13DBD04FF00000704700BFAB
:10133000D01A01BAB1FA81F101F0180122FA01F0D4
:10134000CB40DBB2C0B2C01AC1F120012CFA01F3CC
:10135000D11A914311EAC311E6D17047014918200F
:10136000ABBEFEE72600020070470000FEE700006B
:1013700040F2D401C2F200010860704770470000DB
:10138000B0B5044600F024F9054640F20000C2F270
:1013900000000078611C18BF044400BF00F018F979
:1013A000401BA042FAD3B0BD2DE9F04F82B00E68C9
:1013B000002E00F0038141F20042C4F20102042336
:1013C00040F2004E904208BF03234FF6FF7CC4F268
:1013D000010E009300240123C1F2100C4FF0000A0B
:1013E0004FF0000949E000BF012704F00C030F2271
:1013F0009A402BEA020207FA03F34FEA9A051A43CE
:1014000046F82520D1F804B040F20C455FEACB2223
:10141000DEF8082054BF22EA080242EA0802C4F2B9
:101420000105CEF808202A685FEA8B2354BF22EA20
:10143000080242EA08022A605FEA8B33DEF80420E1
:1014400054BF22EA080242EA08025FEACB33CEF830
:101450000420DEF800204FF0010354BF22EA080206
:1014600042EA0802CEF800200E680AF1010A36FAB4
:101470000AF204F1040400F0A18003FA0AF816EA63
:10148000080FF1D04E68664512DC122E56D8DFE800
:1014900006F0350B45495555555555555555555536
:1014A0005555554D510000BFD1F80C9046E000BF96
:1014B0004FF6FF72C1F2210296420FDC0022C1F208
:1014C000110296421AD00022C1F21202964215D0A1
:1014D0000022C1F22102964210D02FE00022C1F278
:1014E000220296420AD00022C1F23102964205D071
:1014F0000022C1F23202964220D100BF8A684AB16E
:10150000012A14BFC0F81480C0F810804FF00809F9
:1015100014E000BF4FF0040910E000BFCA6802F1F8
:1015200008090BE04FF0000908E000BFCA6802F1AB
:10153000040903E0CA6802F10C0900BF224606460E
:10154000BAF1080F24BF203A043637680F259540BA
:1015500027EA050509FA02F22A433260CA79D2065F
:101560007FF582AF41F21803C4F202031A68AEF5A8
:101570007E7642F001021A601A6802F001020192BE
:10158000019A2AF0030256F802B040F60002C4F2B3
:101590000102904210D040F60042C4F20102904293
:1015A0003FF422AF41F20002C4F20102009F9042D8
:1015B00008BF022719E700BF002716E702B0BDE801
:1015C000F08F00008068084018BF012070470000BD
:1015D00040F22C10C2F200000068704770B5B8B33A
:1015E000044690F83D0028B9002084F83C002046CD
:1015F00000F098FB242084F83D002068016821F069
:1016000001010160016841F400410160016821F4B9
:101610000041016000F03CFD48F28041C0F21E0133
:1016200040F60013D4F804E088424FF00001C0F205
:101630003D0348F2A16C4FF0000238BF01219842EF
:10164000C0F2010C38BF0122E64538BF0A460AB194
:10165000012070BD4DF68361C4F21B31A0FB011265
:101660002168950C4B684FF4967623F03F0343EACC
:101670009243754344F6D3564B60C1F262060B6A3F
:10168000A5FB0656B50923F03F03E64538BF950C88
:101690006A1C1A430A62CA6948F2A0664CF6FF73D4
:1016A000C0F20106B64522EA03020BD801384FEA20
:1016B0004E03B0FBF3F001306FF31F30042898BFE6
:1016C00004201EE0A368013863B119230EFB03F365
:1016D000B0FBF3F001306FF31F3078B100F58040BC
:1016E00008E000BF0EEB4E03B0FBF3F001306FF3E8
:1016F0001F3028B100F5004003E000BF012000E0EA
:1017000001201043C8610868D4E9072320F0C00015
:10171000104318430860886848F2FF3204F10C0651
:1017200090434CCE18431043A5698860C86820F0E8
:10173000FF0030432843C860086840F0010008609B
:1017400000202021206484F83D10206384F83E00AE
:1017500070BD00002DE9F04784B0044600201F460C
:10176000164689460290FFF733FF94F83D10202972
:1017700020D10546206800BF8169890716D5FFF78B
:1017800027FF411B20681A29F6D381698907F3D501
:1017900000202021206384F83D1084F83E00216C55
:1017A00041F02001216484F83C0003E094F83C10EF
:1017B000012903D1022004B0BDE8F087012184F89B
:1017C0003C100168C90703D1016841F001010160C3
:1017D0000168DDF8308021F400610160222184F885
:1017E0003D10102184F83E10002121646662678557
:1017F000618D0227C0F201072185A7F10211E16284
:10180000E16A026811F5803F42F48062026018BF0D
:1018100001293DD1016841F48071016020464FF0FB
:10182000011100224346009500F098FE50B1206857
:101830000068C00544BF4FF400702064012004B06C
:10184000BDE8F0872069B0F5804F27D149F001004D
:10185000C0B2216842460861204639462B4600F056
:1018600067FF0028EAD1208D02284BD001285FD0E5
:10187000002840F0738000200390206841690391A4
:10188000816903910399016841F40071016071E07D
:101890000829BFD0216B1129BCD0BFE7062000EA80
:1018A000D916206806F1F0010161B91D20464246B3
:1018B0002B4600F03DFF0028C0D120685FFA89F177
:1018C00001612046394642462B4600F031FF002890
:1018D000B4D100200390206800224169434603915F
:1018E000816903910399016841F480710160204688
:1018F0004FF00111009500F031FE002897D146F01D
:10190000F100A6E72068016841F400610160EFF38F
:10191000108072B6002003902068416903918169AC
:1019200003910399016821F48061016062B621E0AE
:101930002068016821F480610160EFF3108072B6C5
:101940000020039020684169039181690391039904
:10195000016841F40071016062B60BE02068016823
:1019600041F4806101600021039141690391806924
:1019700003900398208D002800F0CC8040F20809E5
:101980004BF2895A0237C2F20009C1F2F84A232603
:101990000EE000BF10690870606A218D013060623E
:1019A000481E2085618D01396185010400F0B280F7
:1019B00080B203280CD802282CD001284AD1204616
:1019C00041462A4600F024FF002800F09F8035E7BA
:1019D000204641462A4600F01BFF00287FF42EAF28
:1019E0002068616A00690870606A2268411C208D65
:1019F000616201382085638D013B638553695B0714
:101A0000D3D580B20328C5D1106820F4806010605F
:101A1000C0E700BF2046394600224346009500F04B
:101A20009DFD00287FF40AAFEFF3108072B62068A6
:101A3000616A026842F40072026000690870606ABC
:101A4000218D01306062481E2085608D01386085DF
:101A500062B65BE02046394600224346009500F01E
:101A60007DFD00287FF4EAAE2068016821F48061E2
:101A70000160EFF3108072B62068616A0069087037
:101A8000606A218D0130013960622185618D0139E3
:101A90006185D9F80010C908A1FB0A12110A714327
:101AA0000291029901390291029900293ED02168E0
:101AB0004A6952071AD40299013902910299A9B3CD
:101AC00021684A69520711D4029901390291029999
:101AD00061B321684A69520708D402990139029119
:101AE000029919B321684A695207DAD50A6842F4A3
:101AF00000720A6009690170606A218D01306062BC
:101B0000481E2085608D0138608562B62068616A54
:101B1000006940E7202084F83D00002084F83E0062
:101B200084F83C0004B0BDE8F08700BF002020210D
:101B3000206384F83D1084F83E00216C41F02001C0
:101B4000216462B684F83C00012004B0BDE8F0874F
:101B50002DE9F04383B01E46174689460446FFF739
:101B600037FD94F83D10202920D10546206800BF9C
:101B70008169890716D5FFF72BFD411B20681A29BB
:101B8000F6D381698907F3D500202021206384F8EA
:101B90003D1084F83E00216C41F02001216484F85E
:101BA0003C0003E094F83C10012903D1022003B06B
:101BB000BDE8F083012184F83C100168C90703D116
:101BC000016841F001010160016840F2020821F45E
:101BD00000610160212184F83D10102184F83E103D
:101BE0000021216467626685618DC0F2010821854C
:101BF000A8F10211E162E16A0A9E11F5803F18BF67
:101C000001291DD1016841F48071016020464FF027
:101C1000011100223346009500F0A0FC50B120686D
:101C20000068C00544BF4FF400702064012003B079
:101C3000BDE8F0832069B0F5804F07D1FE2015E0A4
:101C40000829DFD0216B1229DCD0DFE7062000EA6B
:101C5000D9102168F030086108F1060120463246AB
:101C60002B4600F065FD0028E0D1FF20216800EA46
:101C7000090008612046414632462B4600F058FDD7
:101C80000028D3D100200290206841690291806928
:101C90000290029806E000BF204631462A4600F036
:101CA000FDFB18BB208D68B3204631462A4600F064
:101CB000F7FDD8B9606A2168024612F8013B0B6152
:101CC0006262628D013A6285228D531E23854F69BF
:101CD0007F07E1D51B04DFD0437802300B616062DF
:101CE000608D01386085901E2085D5E7206C042822
:101CF0009CD12068016841F400710160012003B0AB
:101D0000BDE8F0832068016841F400710160202083
:101D100084F83D00002084F83E0084F83C0003B0C5
:101D2000BDE8F08310B586B045F200410068C4F20A
:101D3000000100228842049202D006B010BD00BF0C
:101D400041F21804C4F20204206840F00800206048
:101D5000206800F0080001900198C0200290122035
:101D600003900320059001F5384002A9FFF71CFB02
:101D7000606840F400106060606800F4001001903A
:101D8000019806B010BD000040F2000040F22C1196
:101D9000C2F20000C2F2000100780A681044086034
:101DA0007047000080B542F20000C4F202000168F2
:101DB00041F010010160032000F07AF80F2000F0DC
:101DC00005F800F027F8002080BD000070B540F253
:101DD0000006C2F2000640F208013278C2F20001A9
:101DE0004FF47A730968B3FBF2F20446B1FBF2F1E7
:101DF000084600F03BFB0F2C4FF0010508D838B91E
:101E00004FF0FF3021460022002500F025F87460D5
:101E1000284670BD82B041F21800C4F20200016889
:101E2000022241F001010160016801F0010101910C
:101E30000199416841F080514160406800F0805054
:101E4000009000980420C4F20100016862F31A6156
:101E5000016002B07047000010B54EF60C5CCEF287
:101E6000000CDCF80030C3F3022E8EF00704042CC3
:101E700028BF0424BEF103034FF0FF3E0EFA04F422
:101E800038BF0023A14399400EFA03F39A4311434C
:101E900000F00F0200F160430901043A03F56443C6
:101EA0006244002848BF02F10C03197010BD000005
:101EB0004EF60C51CEF200010A684FF6FF031A40AD
:101EC00060F30A2242F0806040F0FD7008607047C5
:101ED0002DE9F04381B0002800F0858042F200082F
:101EE000C4F202080446D8F800000D4600F00700CE
:101EF00088420CD2D8F8000020F007002843C8F828
:101F00000000D8F8000000F00700A8426BD120685C
:101F100041F204098107C4F2020917D5410705D52A
:101F2000D9F8001041F4E061C9F80010010705D5A7
:101F3000D9F8001041F46051C9F80010D9F8001028
:101F4000A26821F0F0011143C9F80010C00741D187
:101F5000D8F8000000F00700A8420CD9D8F800001B
:101F600020F007002843C8F80000D8F8000000F06F
:101F70000700A84237D12068410707D5D9F80010DB
:101F8000E26821F4E0611143C9F80010000708D5A8
:101F9000D9F80000216920F4605040EAC100C9F876
:101FA0000000D9F8002002F00C00082841F20020BF
:101FB000C0F27A0050D143F6AF33C2F38341C0F68A
:101FC0000003595CD2033BD440F60010C0F23D0040
:101FD000484341E0606802280AD001282AD159F814
:101FE000041C890308D4012001B0BDE8F08300BFC0
:101FF00059F8041C8901F6D5D9F8001021F0030125
:102000000843C9F80000FFF7E3FA064641F28837B3
:10201000D9F80000616800F00C00B0EB810F97D098
:10202000FFF7D6FA801BB842F2D9032001B0BDE811
:10203000F08300BF59F8041C8907D4D5DCE700BF42
:10204000D9F8002043F69833C2F34042C0F60003AB
:102050009A5C4843B0FBF2F0D9F8001043F68032A6
:10206000C1F30311C0F60002515C40F2080220FAED
:1020700001F140F20400C2F200000068C2F2000266
:102080001160FFF7A3FE002001B0BDE8F08300005F
:1020900040F2080041F20401C2F20000C4F2020161
:1020A0000068096843F69032C1F30221C0F60002CD
:1020B000515CC840704700002DE9F04182B0002813
:1020C00068D00446007841F20006C007C4F2020658
:1020D00025D0706800F00C0004281BD0706800F058
:1020E0000C00082802D17068C00313D4606800286F
:1020F00000F06881B0F5A02F00F07C81B0F5803F42
:1021000000F07C81306820F480303060306820F44A
:10211000802076E13068800301D56068D0B32078F4
:10212000800718D5706810F00C0F07D0706800F0A9
:102130000C0008286ED17068C0036BD4306880072B
:1021400002D52069012825D13068616920F0F800A6
:1021500040EAC1003060207800071FD42078400793
:1021600032D4E56995B1706800F00C00082840F0A1
:102170008F80012D0ED07068216A00F480328A426F
:1021800008D1616A00F47010884203D1002002B0C7
:10219000BDE8F081012002B0BDE8F081A06900280F
:1021A00062D00020C4F242200121C0F88014FFF761
:1021B0000FFA0546706A800700F18C80FFF708FA75
:1021C000401B0228F6D92AE1F06910F0805808D1A6
:1021D000F06940F08050F061F06900F080500090AC
:1021E000009847F20007C4F200073868C00529D4F8
:1021F000386840F480703860FFF7EAF9054600BFA0
:102200003868C0051ED4FFF7E3F9401B6428F7D9EE
:1022100005E100BF2069002840F20000C4F242201E
:1022200000F0828001210160FFF7D2F9054600BF6E
:10223000306880073FF588AFFFF7CAF9401B0228D6
:10224000F6D9ECE0E068002800F08080052800F076
:102250009780012800F09880306A20F001003062F9
:10226000306A20F0040092E00020C4F242200021F5
:10227000C0F88014FFF7ACF9054600BF706A80070C
:102280007FF56CAFFFF7A4F9401B0228F6D9C6E032
:102290000027C4F2422700203866FFF799F9022D83
:1022A00005460BD13068800140F1BE80FFF790F900
:1022B000401B02284FF00300F4D968E73068800122
:1022C0007FF564AFFFF784F9401B02284FF003004D
:1022D000F4D95CE740F20800C2F20000006844F65E
:1022E000D351C1F26201A0FB0101480A019000BF75
:1022F00000BF0198411E002801913FF42FAF00BF9D
:102300000198411E002801913FF428AF00BF0198B9
:10231000411E002801913FF421AF00BF0198411EEA
:1023200000280191E4D119E700210160FFF750F97D
:10233000054600BF306880077FF50DAFFFF748F90D
:10234000401B02284FF00300F4D920E7306A20F048
:1023500001003062306A20F004003062FFF738F983
:10236000054641F2883700BF306A800720D5FFF765
:102370002FF9401BB8424FF00300F5D907E700BF23
:10238000306A40F004003062306A40F00100306290
:10239000FFF71EF9054641F2883700BF306A800713
:1023A00006D4FFF715F9401BB842F7D937E000BF54
:1023B000B8F1000F7FF4D5AEF06920F08050F061E5
:1023C000CFE600BF306820F480303060306820F401
:1023D00080203060FFF7FCF8054600BF30688003BE
:1023E0007FF59DAEFFF7F4F8401B64284FF0030023
:1023F000F4D9CCE6306840F480203060306840F496
:1024000080303060FFF7E4F8054600BF3068800395
:102410003FF585AEFFF7DCF8401B6428F6D90320B2
:1024200002B0BDE8F08100BF206AB0F5803F05D161
:102430007168A26821F40031114371607168626AA9
:1024400021F4741111430843706001203866FFF7CE
:10245000BFF80446306880013FF598AEFFF7B8F842
:10246000001B02284FF00300F4D990E6411E002023
:10247000B0EB116F1CBF012070474EF21002CEF27C
:10248000000251604EF62351CEF20001F0230B7092
:102490000721906011607047FEE7000070B5036887
:1024A000044653F8140F400711D40E46481C29D097
:1024B00086BB00BF1868400527D4FFF789F823685A
:1024C00053F8140F400739D518684007F2D500209B
:1024D00070BD00BF18684007F9D41868400514D4CF
:1024E00018684007F3D4186840050ED418684007F0
:1024F000EDD41868400508D4186840074FF0000074
:1025000048BF70BD18684005E4D56FF4806018605E
:10251000042014E0154603E053F8140F4007D6D406
:1025200018684005F1D4FFF753F8401B2368B04208
:10253000F2D958694007EFD4202000E02020002184
:102540002022216384F83D2084F83E10226C104341
:102550002064012084F83C1070BD00002DE9F0419A
:10256000054600681E46144601F47F0201338FB20F
:1025700042D0DDF81880B2F5803F40F08780406996
:102580003840C01BB0FA80F04009A04240F0C8803B
:102590004EB924E040693840C01BB0FA80F04009D1
:1025A000A04240F0BD80FFF713F8A0EB08012868B7
:1025B000B142EFD941693940C91BB1FA81F14909EA
:1025C000A142E7D19BE000BF40693840C01BB0FA90
:1025D00080F04009A0424FF0000040F0A680FEF7D6
:1025E000F7FF286841693940C91BB1FA81F14909EF
:1025F000A142E9D183E000BFB2F5803F24D100BF02
:1026000041693940C91BB1FA81F14909A14240F041
:10261000878041693940C91BB1FA81F14909A1425A
:1026200040F07E8041693940C91BB1FA81F1490906
:10263000A14275D141693940C91BB1FA81F14909FB
:10264000A142DDD06CE000BF81693940C91BB1FAFD
:1026500081F14909A14263D181693940C91BB1FAAD
:1026600081F14909A1425BD181693940C91BB1FAA5
:1026700081F14909A14253D181693940C91BB1FA9D
:1026800081F14909A142DFD04AE000BF80693840AA
:10269000C01BB0FA80F04009A04241D146B923E006
:1026A00080693840C01BB0FA80F04009A0423BD19D
:1026B000FEF78EFFA0EB08012868B142F0D98169CE
:1026C0003940C91BB1FA81F14909A142E8D116E0AC
:1026D00080693840C01BB0FA80F04009A0424FF03A
:1026E000000018BFBDE8F081FEF772FF286881691D
:1026F0003940C91BB1FA81F14909A142E8D1002052
:102700002021286385F83D1085F83E00296C41F0B2
:102710002001296485F83C000120BDE8F08100BF5C
:102720000020BDE8F08100BF0020BDE8F08100007E
:10273000F0B581B0044600681D4643698FB203EAD4
:102740000701B94202D1002001B0F0BD416916462F
:10275000013201F4806125D0002940D1CEB100BF03
:10276000FEF736FF411B2068B14203D94169394069
:10277000B9424BD141693940B942E4D04169490578
:10278000EED52CE041693940B942DCD041694905B8
:1027900025D4FEF71DFF206841693940B942F1D0C8
:1027A000202024E0D9B941693940B942CBD04169F0
:1027B000490514D441693940B942C4D04169490539
:1027C0000DD441693940B942BDD04169490506D4AB
:1027D00041693940B942B6D041694905E3D501683C
:1027E00041F4007101606FF48061416104200021B7
:1027F0002022216384F83D2084F83E10226C10438F
:10280000206484F83C10012001B0F0BD2020EEE7E8
:1028100070B504460068154650F8143F5A063DD47A
:102820000E4629B926E000BF50F8141F490635D4DA
:102830000168C90621D4FEF7CBFE411B2068B142D6
:10284000F2D941694906EFD400202021206384F8A1
:102850003D1084F83E00206C40F0200018E000BFDE
:10286000FEF7B6FE206850F8141F4906ECD5016843
:10287000490613D40168C906F2D56FF01001016052
:1028800000202021206384F83D1084F83E00206C55
:102890002064002084F83C00012070BD002070BD41
:1028A00070B50368044653F8140F000611D40E46A1
:1028B000481C29D086BB00BF1868400527D4FEF706
:1028C00087FE236853F8140F000639D518680006F0
:1028D000F2D5002070BD00BF18680006F9D4186852
:1028E000400514D418680006F3D4186840050ED4C7
:1028F00018680006EDD41868400508D4186800066A
:102900004FF0000048BF70BD18684005E4D56FF473
:1029100080601860042014E0154603E053F8140F9B
:102920000006D6D418684005F1D4FEF751FE401BCE
:102930002368B042F2D958690006EFD4202000E0A5
:10294000202000212022216384F83D2084F83E10BD
:10295000226C10432064012084F83C1070BD0000FC
:10296000FEE70000FEE7000070470000704700002F
:10297000FFF70ABA70470000FEE7000040F270015E
:10298000C2F2000101F14C02904218BF70474A7830
:10299000062A05D90120012208704A70704700BF3D
:1029A00002A0805C013208704A7070470102030483
:1029B0000506000040F27001C2F2000101F14C0274
:1029C000904204BF072008707047000040F2700179
:1029D000C2F2000101F11C02904205D001F1340263
:1029E00090420FD0704700BF087801380528F9D809
:1029F000DFE800F0041E22262A2E00BF887A01306C
:102A00000CE000BF08780138052888BF7047DFE870
:102A100000F00327333F4B57887A0138C2B2172A98
:102A200088BF0020887201F1080000F0A5BB00BF3C
:102A3000487A013016E000BF087A01301EE000BF7E
:102A4000087B013026E000BF487B01302EE000BF4C
:102A5000887B0130887301F1080000F08DBB00BF56
:102A6000487A0138C2B23B2A88BF0020487201F17F
:102A7000080000F081BB00BF087A0138C2B23B2ACF
:102A800088BF0020087201F1080000F075BB00BF8C
:102A9000087B0138C2B21E2A88BF0020087301F1EA
:102AA000080000F069BB00BF487B0138C2B20C2AA5
:102AB00088BF0020487301F1080000F05DBB00BF33
:102AC000887B0138887301F1080000F055BB0000D5
:102AD0007047000010B504460069A18AFEF772FD38
:102AE000A178884205D0A0700120E070FEF770FD4B
:102AF0006060E07870B1FEF76BFD6168401A0F28E6
:102B000008D3A07800212070E1706178884205D157
:102B100020E000BF2078617888421BD080B1FEF7AA
:102B200057FDA168401AB0F57A7F02D82046FFF71A
:102B300025FF2046FFF7CCFF0020207308E000BFF0
:102B4000012020732046FFF741FFFEF741FDA06002
:102B500020786070207B68B1FEF73AFDA168401ACA
:102B600040F6B831884238BF10BD2046FFF722FF3B
:102B70000020207310BD00000123837040F2011378
:102B8000038001618282704770B582B004460B46B3
:102B90004160217A5000627A41F00401217242F0D2
:102BA000340142F0300220708DF804108DF80520B9
:102BB0008DF806108DF807206426C1B201AA1846C8
:102BC00004230096FEF7C4FF607A042340F034012A
:102BD0008DF8041040F030018DF8051040F024010C
:102BE0008DF8061040F02002606821788DF80720EB
:102BF00001AA0096FEF7ACFF0520FEF7C1FB607A44
:102C0000042340F004018DF8041040F014018DF805
:102C100005008DF8061040F01002606821788DF8EC
:102C2000072001AA0096FEF793FF0520FEF7A8FBF8
:102C3000607A042340F004018DF8041040F0C401D0
:102C40008DF805008DF8061040F0C002606821780C
:102C50008DF8072001AA0096FEF77AFF0520FEF7FF
:102C60008FFB607A042340F004018DF8041040F0DB
:102C700024018DF805008DF8061040F020026068F0
:102C800021788DF8072001AA0096FEF761FF052044
:102C9000FEF776FB627A042342F0840142F00400DE
:102CA0008DF8041042F080018DF805108DF80600B3
:102CB000606821788DF8072001AA0096FEF748FF8A
:102CC000207A637A20F001016FF07F02217220F0F8
:102CD0000F0042EA011143F0040242EA00051843E2
:102CE0008DF8050042EA01008DF8060043EA010272
:102CF000606821788DF8072001AA04238DF804501C
:102D00000096FEF725FF0820607202B070BD00003B
:102D100082B02DE9F04389B003AD0446CDE910231C
:102D200010AA28460292FDF7A5FAC0B260B3013896
:102D30000F2828BF0F20461C6F1E4FF064080DF1AE
:102D4000200900BF17F8010F617A20F00F0241F04F
:102D5000050341F0010143EA02050A438DF82120F1
:102D600043EA00128DF8222041EA001260682178BF
:102D70008DF823204A4604238DF82050CDF800809A
:102D8000FEF7E6FE013EDDD109B0BDE8F04302B03A
:102D90007047000080B582B013A3595C437A114498
:102DA00001F0700262F07F0E43F0040C4CEA0E0258
:102DB0008DF804204EEA03028DF805204CEA01123A
:102DC0008DF8062043EA0112436801788DF8072048
:102DD0004FF0640C01AA18460423CDF800C0FEF79A
:102DE000B7FE02B080BD00BF0040145492B0FEF7A1
:102DF000D9FF00240120CDE90D44CDE90B440C900E
:102E000010200D904FF460100225119008A8CDE914
:102E100009440895CDE90F54FFF74EF920B1EFF3BF
:102E2000108072B6FEE700BF0F20CDE903054FF416
:102E30008060CDE9060403A802210594FFF748F855
:102E400020B1EFF3108072B6FEE700BF002441F21C
:102E500018000B94C4F20200016840F6000541F02E
:102E6000040101600168C4F2010501F0040103914D
:102E70000399016841F008010160006808A900F0A9
:102E80000800039003980720CDE9080401200A9068
:102E90002846FEF789FA40F2D800A5F53441C2F27F
:102EA000000048F2A0624FF48043C0F2010280E8C3
:102EB0001600C0E90343C0E90544C0E90744FEF732
:102EC0008DFB28B1EFF3108072B600BFFEE700BFA4
:102ED00040F2D806C2F200063046FEF749FA40F248
:102EE0007009C2F2000909F1100420463146272278
:102EF000FFF74AFE09F14C08404629460122FFF738
:102F00003BFE09F11C0B584629460222FFF734FE0E
:102F100009F1340A504629460422FFF72DFE09F133
:102F200008050CE05046FFF7D5FD4046FFF7D2FDFF
:102F30005846FFF7CFFD99F80000002842D0FEF771
:102F400047FBD9F80410401AB0F5FA7FEAD32846B7
:102F500000F0B0F8284600F077F806462046002139
:102F60000222FFF717FF99F8087099F8093099F8CD
:102F70000A2043F6D3312046C0F600010097FFF740
:102F8000C7FE204601210022FFF704FF99F80D102B
:102F900043F69A3206EB460099F80C3099F80E7019
:102FA000C0F60002009143F6BF3102442046C0F64D
:102FB00000010197FFF7ACFEFEF70AFBC9F8040019
:102FC000B0E700BFFEF704FBD9F80410401AB0F5D3
:102FD000FA7FB4D3284600F06DF8284600F034F8A4
:102FE0000646204600210222FFF7D4FE99F8087019
:102FF00099F8093099F80A2043F6D3312046C0F6F3
:1030000000010097FFF784FE204601210022FFF710
:10301000C1FE99F80D1043F69A3206EB460099F876
:103020000C3099F80E70C0F60002009143F6BF31E3
:1030300002442046C0F600010197FFF769FEFEF743
:10304000C7FAC9F804007AE710B5827990F804C08D
:10305000407902F5FA610B46032834BF02F2CF73C0
:1030600002F2CE7147F2D912C0F2140200FB02FE46
:103070009A0841F27B4050431A0940F63E246243CD
:103080000CEBDE44214401EB9301A1EB504000EB3B
:103090001240043081B242F293425143A0EB1142FC
:1030A00092B2520802EB11418908A1EBC101084418
:1030B00080B210BD70B584B040F2D405C2F20005F4
:1030C0000446002128688DF80810642602AAD02141
:1030D00001230096FEF73CFD28680DF10902D0217E
:1030E00007230096FEF736FB9DF809009DF80A10AD
:1030F000060906EB860600F00F0000EB4600207084
:1031000008099DF80B2000EB800001F00F0101EB96
:103110004000607010099DF80C3000EB800002F058
:103120000F0101EB4000A070180900EB800003F0D4
:103130000F0101EB40009DF80D10E070080900EB55
:10314000800001F00F0101EB40009DF80E1020718E
:10315000080900EB800001F00F0101EB40009DF831
:103160000F106071080900EB800001F00F0101EB06
:103170004000A07104B070BDB0B584B002784FF0CB
:10318000CD0CD4B204FB0CF4E40A04EB84054378C0
:10319000A2EB450242EA04128DF80920DAB202FBE2
:1031A0000CF2D20A002102EB82048DF8081081781B
:1031B000A3EB440343EA02128DF80A20CAB202FBD1
:1031C0000CF2D20A02EB820390F803E0A1EB430178
:1031D00041EA02118DF80B105FFA8EF101FB0CF140
:1031E000C90A01EB8102AEEB420242EA0111027907
:1031F0008DF80C10D1B201FB0CF1C90A01EB81036F
:10320000A2EB430242EA011142798DF80D10D1B2CE
:1032100001FB0CF1C90A01EB8103A2EB43028079A7
:1032200042EA01118DF80E10C1B201FB0CF1C90A7E
:1032300001EB8102A0EB420040EA011140F2D40010
:10324000C2F2000000688DF80F10642502AAD02198
:1032500008230095FEF77CFC04B0B0BD5FEA400C8B
:1032600008BF91F0000F4FEA8C234FEAC12243EAD6
:1032700051514FEA1C5018BF00F5F0404FEA3000A2
:1032800018BF41F000415FEA6C5C00F02980BCF19E
:10329000FF3F08BF40F080407047130C06BF120488
:1032A0004FF0100C4FF0000C130E04BF12020CF183
:1032B000080C130F04BF12010CF1040C930F04BF90
:1032C00092000CF1020CD30F04BF52000CF1010C60
:1032D00011464FF00002A0F11F00A0EB0C00704758
:1032E00011F0004F08BF704731F000413FF4D5AFF7
:1032F0000B0C06BF09044FF0100C4FF0000C0B0E26
:1033000004BF09020CF1080C0B0F04BF09010CF1FA
:10331000040C8B0F04BF89000CF1020CCB0F04BF0F
:1033200049000CF1010CCCF1200322FA03F341EA2D
:10333000030102FA0CF2A0EB0C0000F1010070474F
:1033400023F07F4720F07F4C80EA030000F000402C
:10335000ACEB070303F57C5303F1FF032DE9804930
:1033600009B44FEA144324EA03484FEA154B25EA0F
:103370000B4E0FF2042606EB13273E7803FB06677D
:10338000C7F5000707FB06F64FEAD64606F1020628
:103390004FEA543707FB066CCCF1005C4FEA1C4740
:1033A0002CEA074C0CFB06F507FB06F404EB15466C
:1033B0004FEA961649085FEA320234BF00204FF008
:1033C00000404FEAD13706FB07FC4FEA1C4C0CFBD0
:1033D0000BF7D21B03FB0CF761EB07010CFB0EF79D
:1033E000B0EB074072EB17420CFB08F734BFA2EBBF
:1033F0000742B2EB074261EB17414FEA0C444FEA38
:10340000910706FB07FC4FEA1C4C0CFB0BF7B0EBDB
:10341000C74072EB573203FB0CF734BFA2EBC74235
:10342000B2EBC74261EB57310CFB0EF7B0EBC700B4
:1034300072EB57720CFB08F734BFA2EBC702B2EB7A
:10344000C70261EB57714FEA816141EA92114FEA7D
:10345000826242EA90124FEA806004EBCC04039F40
:103460004FEAD13706FB07FC4FEA1C4C0CFB0BF76D
:10347000D21B03FB0CF761EB07010CFB0EF7B0EB63
:10348000074072EB17420CFB08F734BFA2EB074270
:10349000B2EB074261EB17414FEA8C5504EB9C24D9
:1034A0004FEA910706FB07FC4FEA1C4C0CFB0BF79D
:1034B000B0EBC74072EB573203FB0CF734BFA2EB03
:1034C000C742B2EBC74261EB57310CFB0EF7B0EBD2
:1034D000C70072EB57720CFB08F734BFA2EBC702B0
:1034E000B2EBC70261EB57714FEA816141EA921179
:1034F0004FEA826242EA90124FEA806015EB4C2557
:1035000044F100044FEAD13706FB07FC4FEA1C4C9C
:103510000CFB0BF7D21B03FB0CF761EB07010CFB59
:103520000EF7B0EB074072EB17420CFB08F734BF05
:10353000A2EB0742B2EB074261EB17414FEA813140
:1035400041EA92414FEA823242EA90424FEA8030A9
:103550004FEA0C7615EB1C1544F1000448EA0343CE
:103560004EEA0B484FF0000EB2EB080C71EB03076C
:1035700024BF624639464EEB0E0E4FF0000B00188A
:10358000524149414BEB0B0BB2EB080C71EB0307BB
:103590007BF1000B24BF624639464EEB0E0E4FF016
:1035A000000B0018524149414BEB0B0BB2EB080CDE
:1035B00071EB03077BF1000B24BF624639464EEBEB
:1035C0000E0E51EA020718BF46F0010616EB0E7602
:1035D00055F1000254F1000103D5BDE88901BDE8B1
:1035E0000088BDE88901BDE80048B619524141EBA9
:1035F0000101A3F10103704780807F7E7D7C7B7A8F
:103600007978777676757473727171706F6E6E6D8E
:103610006C6C6B6A6A696868676666656464636334
:1036200062616160605F5F5E5E5D5D5C5C5B5B5ABA
:103630005A59595858575756565555555454535327
:1036400052525251515050504F4F4F4E4E4D4D4D82
:103650004C4C4C4B4B4B4A4A4A49494948484847CD
:10366000474747464646454545444444444343430B
:1036700043424242424141419C46002B30D47700B4
:103680002BD04FEA37071CB503B44FF010004FF0B2
:103690001001BAF1000F06D0BCF1000FDCBF40F002
:1036A000080040F008014FF000000FBCBDE81040DA
:1036B0000BF1010BBBF1010F08BF5FEA170722BF37
:1036C00012F1010211F101014FF0004143F1000339
:1036D00000F0004043EA00007047F9D35708D0E7F4
:1036E00046EA06464FEA164613F1400F1FDD13F176
:1036F000200FDFBF16430A46002120335B42BED0B5
:10370000C3F1200746EA06464FEA164602FA07F7D3
:1037100046EA070622FA03F2C3F1200701FA07F787
:1037200042EA070221FA03F14FF00003A7E746EA55
:10373000020646EA06464FEA164646EA0106BCBFBE
:1037400046EA0646360C4FF000034FF000024FF0F9
:10375000000194E72DE9804C70B49A46934691E8B5
:10376000380007C831EA400C48BF34EA430C03D59F
:10377000FFF7E6FDFFF780FFF0BCBDE8008C2DE908
:10378000804C70B49A46934691E8380007C810F010
:10379000804F08BF13F0804F03D100F005F8FFF70A
:1037A0006BFFF0BCBDE8008C20F07F4723F07F4C1E
:1037B00080EA030000F0004007EB0C03A3F57C5304
:1037C000A3F1FE0392F0000F00F0B38095F0000F1C
:1037D00000F077802DE901494FEA114021EA0048C5
:1037E0004FEA144624EA064700FB06FC08FB06F6EF
:1037F00007FB08F818EB06484CEB164C00FB07F7E4
:1038000018EB07484CEB17404FEA124B22EA0B4EDD
:103810004FEA154625EA06470BFB06FC0EFB06F6AB
:1038200007FB0EFE1EEB064E4CEB164C0BFB07F790
:103830001EEB074E4CEB174B18EB0B0840F100004A
:1038400018EB0E0B58EB000840F100008F1A4FF0F8
:1038500000014FF000063CBFC943661B14BFB5EB27
:10386000040C00213CBFC943F61B4FEA174427EA6A
:1038700004454FEA1C472CEA074C04FB076205FB92
:1038800007F70CFB05F616EB074642EB174204FB65
:103890000CFC16EB0C4642EB1C421BEB060658EBED
:1038A000020241414EEA8E0E46EA9E0601D5BDE86F
:1038B0000189B619524141EB0101A3F10103BDE8B1
:1038C00001894FEA144524EA05464FEA114721EAE7
:1038D000074C05FB07F406FB07F70CFB06F111EBA1
:1038E000074144EB174405FB0CFC11EB0C4144EB86
:1038F0001C444FEA124722EA074C05FB07F206FB7D
:1039000007F70CFB06F616EB074642EB174205FBE2
:103910000CFC16EB0C4642EB1C456A1854F10001F6
:1039200048BF7047B619524141EB0101A3F10103B1
:10393000704795F0000F37D04FEA114221EA024656
:103940004FEA144724EA074C02FB07F106FB07F78E
:103950000CFB06F414EB074441EB174102FB0CFC93
:1039600014EB0C4441EB1C414FEA154725EA074C88
:1039700002FB07F506FB07F70CFB06F616EB0746FE
:1039800045EB174502FB0CFC16EB0C4645EB1C42C5
:10399000121951F1000148BF7047B619524141EB6D
:1039A0000101A3F1010370474FEA144524EA0546DB
:1039B0004FEA114721EA074C05FB07F106FB07F721
:1039C0000CFB06F212EB074241EB174105FB0CFC26
:1039D00012EB0C4251EB1C414FF0000648BF704700
:1039E000921841EB0101A3F101037047490050EA2D
:1039F000C12018BF04204A0D18BF40F0010040F25A
:103A0000FF72B2EB515F08BF40F00200012808BF0F
:103A10000520704730380A2801D201207047002065
:103A20007047000010B500290AD00878002807D098
:103A300005487844FDF752FC002801D0002010BD55
:103A40000248784410BD0000D2010000CA01000005
:103A500010B500290AD00878002807D00548784416
:103A6000FDF73CFC002801D0002010BD024878443E
:103A700010BD0000C2010000BA010000FDF738B817
:103A8000FDF76CB900000000000000003031323357
:103A90003435363738394142434445464030580082
:103AA00030313233343536373839616263646566B4
:103AB0004030780004000008000000000000000210
:103AC0000001000010303132333435363738396177
:103AD000626364656678700030313233343536376E
:103AE00038394142434445465850000002400000E6
:103AF000000000A00000000005400000000000C819
:103B0000000000000C4000000000409C000000008D
:103B1000194000000020BCBE00000000344000003E
:103B2000BFC91B8E00000004B5400000504BCFD031
:103B30006607E2CF010000006C4100003E8251AAFE
:103B4000DFEEA73401000000D9420000DCB5A0E29E
:103B50003A301F97FFFFFFFFB4450000FD25A0C8C6
:103B6000E9A3C14FFFFFFFFFFF3F000000000080FF
:103B700000000000FF3F0000000000800000000087
:103B8000000000000000000001020304060708090D
:103B9000000000000102030401025432005433000B
:103BA000543400543500543600543700434E00025C
:103BB000030405060708090A0B0C0D0E0F1010254B
:103BC0007320253032642F253032642F3230253077
:103BD000326400253032643A253032643A2530327E
:103BE00064000000303D00080000002010000000CC
:103BF00028010008403D00081000002020070000B8
:103C0000440100081C00000043000000F8FFFFFF13
:103C10000C0000000E0000000F0000002E0000004D
:103C20001001000043000000F8FFFFFF004040408B
:103C3000404040404040414141414140404040407F
:103C4000404040404040404040404040400502022B
:103C500002020202020202020202020202202020EA
:103C60002020202020202002020202020202909046
:103C70009090909010101010101010101010101044
:103C80001010101010101010020202020202888898
:103C900088888888080808080808080808080808A4
:103CA000080808080808080802020202400000008C
:103CB0000000000000000000000000000000000004
:103CC00000000000000000000000000000000000F4
:103CD00000000000000000000000000000000000E4
:103CE00000000000000000000000000000000000D4
:103CF00000000000000000000000000000000000C4
:103D000000000000000000000000000000000000B3
:103D100000000000000000000000000000000000A3
:103D20000000000000000000000000000000000093
:103D3000010000001000000000127A0000000000E6
:04000005080000ED02
:00000001FF
