:020000040800F2
:10000000B8070020350200083D3F0008913800087D
:10001000393F0008C51900086940000800000000C9
:10002000000000000000000000000000453F000844
:10003000D519000800000000413F0008493F0008B2
:100040004F0200084F0200084F0200084F0200084C
:100050004F0200084F0200084F0200084F0200083C
:100060004F0200084F0200084F0200084F0200082C
:100070004F0200084F0200084F0200084F0200081C
:100080004F0200084F0200084F0200084F0200080C
:100090004F0200084F0200084F0200084F020008FC
:1000A0004F0200084F0200084F0200084F020008EC
:1000B0004F0200084F0200084F0200084F020008DC
:1000C0004F0200084F0200084F0200084F020008CC
:1000D0004F0200085D4000084F0200084F02000870
:1000E0004F0200084F0200084F02000800F002F81B
:1000F00000F090F80AA090E8000C82448344AAF132
:100100000107DA4501D100F085F8AFF2090EBAE82F
:100110000F0013F0010F18BFFB1A43F0010318473B
:10012000C8580000E8580000103A24BF78C878C1C9
:10013000FAD8520724BF30C830C144BF04680C60ED
:10014000704700000023002400250026103A28BF35
:1001500078C1FBD8520728BF30C148BF0B60704739
:100160006E2900F07C83702900F0D584662905F0A3
:100170008183652905F07E83672905F07B836129EA
:1001800005F07A8303681B0A28BF41F080016929C2
:1001900000F0E880642900F0E580752900F0E28035
:1001A0006F2900F06384782900F0A184E92900F028
:1001B000FD83E42900F0FA83F52900F0F783EF29A5
:1001C00000F06084F82900F0A0840368DB0928BFF0
:1001D00041F08001632900F07E83732900F083835E
:1001E000E32901F0CB80F32901F0D0800020704793
:1001F0001FB501F0DBFA04000020002105F024FB0C
:10020000401C60600020002105F008FBE0601FBD7D
:1002100010B510BD01F09CFA1146FFF7E9FF04F09C
:1002200017FB01F079FB03B4FFF7F2FF03BC01F009
:10023000C1FB00000948804709480047FEE7FEE788
:10024000FEE7FEE7FEE7FEE7FEE7FEE7FEE7FEE786
:1002500004480549054A064B704700004D3F000819
:10026000ED000008B8010020B8070020B803002006
:10027000B80300201CB50C46064B7B446946009031
:10028000204600F006FB04460020694600F014FBFF
:1002900020461CBD3B0600000FB41CB5084B06AA47
:1002A0007B4469460090059800F0F3FA044600206C
:1002B000694600F001FB20461CBC5DF814FB000001
:1002C0001506000070B5044685690068C10601D5B1
:1002D000302600E02026C00707D070BDD4E90121F8
:1002E00030469047206A401C20626D1EF6D570BDD6
:1002F00070B5044685690078C00707D170BDD4E9A0
:10030000012120209047206A401C20626D1EF6D5F6
:1003100070BD70B50C460546012A05D028788006C8
:1003200000D5EA69002302E0012305E05B1C93424B
:1003300002D2E05C0028F9D1A869E618C01AA861C9
:10034000286A184428622846FFF7BCFF04E0D5E974
:10035000012114F8010B9047B442F8D32846FFF767
:10036000C7FF70BD2DE9F0410646002410687529CD
:10037000314616A510D000F007FA002802DA4042F4
:1003800013A507E031688A0701D512A502E04907E5
:1003900004D511A5012401E000F0FFF900210A2293
:1003A00006F1240709E0B0FBF2FCB0FBF2F302FB1C
:1003B0001C00303078541846491C0028F3D12346DD
:1003C0002A463046BDE8F04100F0F0B900000000D8
:1003D0002D0000002B000000200000002DE9F05F40
:1003E000894604464FF0000ADFF874B1FB44C0F8B8
:1003F00020A02046E1688847002874D0252806D030
:10040000D4E901219047206A401C2062F1E70026D0
:100410005F462046E16888472028054607DB312DE6
:1004200005D2781910F8200C08B10643F1E7B0079F
:1004300001D526F00406C4F81CA00027C4F818A0B3
:100440002A2D09D0284605F0E1F938B304EB8708D6
:10045000303DC8F8185019E059F8041B204604EB49
:1004600087029161E1688847012F054618D1E0694C
:10047000002820DA26F020061DE0D8F8180000EB4E
:10048000800005EB40003038C8F818002046E168CD
:100490008847054605F0BAF90028EED1012F0AD0A9
:1004A0002E2D08D12046E16888477F1C0546022F83
:1004B00046F02006C4DBA069002803DA404246F07B
:1004C0000106A061F00701D026F010066C2D0BD0BC
:1004D000682D09D04C2D39D06A2D35D0742D35D0EA
:1004E0007A2D33D016E038E0E1682F462046884761
:1004F000B842054609D16C2F26D04FF48060E168E0
:10050000064320468847054604E06C2F1AD04FF476
:10051000807006430DB3A5F14100192802D820359B
:1005200046F400664A462946204626604E46FFF7B6
:1005300017FE80B101280BD0F61D26F0070000F150
:10054000080956E74020E4E78020D8E70020D6E7F6
:1005500006F104094DE7284652E7206ABDE8F09FFE
:100560008C5400000FB400B58DB010A90990009113
:100570000B904FF0FF300A9000200C900648784412
:100580000690064878446A4607900F9909A800F03B
:10059000E1FA0DB05DF814FBF30500000B06000056
:1005A0002DE9FF5F1D464FF0FF3B91464FF00008DD
:1005B0005F46D5E90146A96901987F1C8847296AE9
:1005C000824688470028F6D1BAF1FF3F0CD0002EB2
:1005D00024F4C06419DD600614D5BAF12B0F09D0DC
:1005E000BAF12D0F0ED103E0584604B0BDE8F09FDC
:1005F00044F48064A96901987F1C8847761E82466E
:10060000002E02DDBAF1300F03D0B9F1000F26D071
:1006100032E0A969761E01987F1C44F40074884773
:10062000002E824605DDBAF1780F06D0BAF1580FD8
:1006300003D0B9F1000F10D01EE0B9F1000F02D0C5
:10064000B9F1100F18D1A969761E01987F1C24F406
:10065000007488478246102002E0082000E00A204B
:10066000814609E0A96908FB0908761E01987F1CEC
:1006700044F4007488478246002E05DD4946504602
:1006800000F054FA0028EDDAE96901988847A005DE
:1006900002D46FF00100A8E7E00725D1600613D56A
:1006A000600502D5C8F1000000E0404629680A1D37
:1006B0002A600968220501D5087015E0220701D5D6
:1006C000088011E008600FE02868011D29600068BB
:1006D000210502D580F8008006E0210702D5A0F8A8
:1006E000008001E0C0F8008038467EE740EA010360
:1006F00070B59B072ED14FF00136042A2AD308C8C3
:1007000010C99D1B9D43121F15EAC61517D0D8B2FC
:10071000E1B2401A50EA056110D198B2A1B2401A74
:1007200050EA05410AD123F07F4024F07F41401A6E
:1007300050EA052102D1180EA0EB146070BDA3424F
:10074000DBD018BA21BA884201D9012070BD4FF020
:10075000FF3070BD0AB9002070BD10F8013B11F8E0
:10076000014B63B1A3420AD1521E08D010F8013BDD
:1007700011F8014B1BB1A34201D1521EEDD1181B40
:1007800070BD70477047704709684A0501D540B28F
:100790007047C905FCD500B2704709684A0501D504
:1007A000C0B27047C905FCD580B270472DE9F0474B
:1007B0000D4699469246044600F1240801688806D1
:1007C00004D5E06921F01001216000E00120A84279
:1007D00001DD471B00E00027A1697A1902EB09003F
:1007E000081AA0612078C00602D42046FFF76AFDEF
:1007F000002608E0D4E901211AF806009047206A93
:10080000401C761C20624E45F4DB2078C0060AD5D9
:100810002046FFF757FD06E0D4E90121302090473C
:10082000206A401C2062381EA7F10107F4DC07E0B3
:10083000D4E9012118F805009047206A401C206285
:10084000281EA5F10105F3DC2046FFF751FD2078B5
:10085000000602D50220BDE8F0870120FBE7116801
:100860000268006A530501D508700AE0D30501D576
:10087000088006E0130603D5C217C1E9000200E0B4
:10088000086001207047000001694A1C0261087875
:10089000704700B58FB0CDE90131002105910549C0
:1008A0007944CDE9031011466846FFF797FD0FB074
:1008B00000BD0000E5FFFFFF0A6802F8010B0A60B7
:1008C000704710B5436913B1AFF3008001E0FFF743
:1008D00020FD012010BD127800F124010A700022D1
:1008E0004A700122EDE711684FF0FF32E9E700009E
:1008F0002DE9FF5F15468A460446DFF8AC80F844D0
:100900000027D8E900103E46CDE9001010E03AF883
:1009100016106A4602A800F0F7FE411C07D02178A5
:10092000890603D5E269391891420DD80744761C2F
:100930002078800602D5E069B84205DDAE42E6DBEC
:100940003AF816000028E2D1A069C01BA061204639
:10095000FFF7B8FCD8E90010CDE90010002017E03F
:100960003AF818106A4602A800F0CEFEB0F1FF3F38
:1009700081460BD000250DF1080B05E0D4E90121DB
:100980001BF8050090476D1C4D45F7D308F1010099
:10099000B0428046E4DB206A384420622046FFF7FC
:1009A000A7FCBDE8FF9F00008E4F00002DE9F0413D
:1009B0008046D21D22F007020025D2E90002F52967
:1009C00015A614D0011E72F1000106DA0023D0EB47
:1009D000030063EB020211A608E0D8F800108B07B1
:1009E00001D50FA602E0490701D50EA60125114643
:1009F000002408F1240704E000F0DCF830323A5516
:100A0000641C50EA0102F7D12B463246214640468B
:100A1000BDE8F041FFF7CABE000000002D00000055
:100A20002B0000002000000030B4002100F124045D
:100A300008E002F00705D208303542EA4372DB08CD
:100A40006554491C52EA0305F3D10468002310A23F
:100A5000250708D504F020040C4304D0C469012301
:100A60000CA2641EC46130BCFFF7A0BE10B50446E2
:100A700021461068FFF791FE02462046BDE810406F
:100A80000023D1E7D21D22F00701D1E90023CBE7F3
:100A90000000000030000000F0B40D460188090598
:100AA00002D5214C7C4402E01F4C7C440E340021D2
:100AB00000F1240608E002F00F071209E75D42EAA0
:100AC00003721B097754491C52EA0307F3D10278D9
:100AD0000023120704D5702D06D009B1022311346A
:100AE0002246F0BCFFF762BE01231034F8E770B570
:100AF00004460D4621461068FFF74FFE0246294680
:100B00002046BDE870400023C6E7D21D22F007034F
:100B1000D3E90023C0E70368126843F020030360B1
:100B20000823C3610023B7E7F04D00003A2800D244
:100B3000303820F02002412A01D3A2F13700884248
:100B400001D34FF0FF307047026811441378016001
:100B500018467047D1600549794451610449794488
:100B6000116200211161114600F014BCEDFFFFFF7E
:100B7000DD000000426842B1016811F8013B23B179
:100B8000521EC0E90012184670470121C160881E3C
:100B9000704742685AB1C368016843B983688B42A1
:100BA00005D0491E521CC0E90012002070474FF0CA
:100BB000FF30704730B5B0F10A0271F100034FEA1F
:100BC000900E4EEA817EB0EB0E0061EB91014FEA90
:100BD000101E4EEA017E10EB0E0041EB11114FEAA0
:100BE000102E4EEA016E10EB0E0041EB11214FEA80
:100BF000104E4EEA014E10EB0E0041EB1141401831
:100C000041F100014FEAD00040EA41704FEAD101C2
:100C10004FEA810444EA907410EB800544EB010430
:100C20006D1944EB0404521BA3414FF0000348BF6D
:100C30000A3200D530BD401C41F1000130BD10B575
:100C4000044600F0ABFD0068005D00F0010010BD3F
:100C50002DE9FF4F0C461E464FF0FF378BB0D2E90F
:100C60000001DDF860800A908A46C1F30A5505B993
:100C70003D46002108464FF00000BAF1000F00F495
:100C8000400005DA00EB80004FF4400101EA50001B
:100C90004FEA9059B9F1010F00DDB9460A9850EAC0
:100CA0004A000ED044F61050A5F2FF3545432F14EC
:100CB000B8F1000F1ED07542291E1EDDC9F10002D9
:100CC0001CE0B8F1010F4FF0000001D0302103E02B
:100CD000F24305E02154401CB042FBDB30460022C9
:100CE000002121540B99C1F80880C1E900200FB000
:100CF000BDE8F08FBD1B6D1CDEE74A4600DA694295
:100D000006A800F097FD06AB93E8070003AB83E865
:100D1000070050460A9904F09CF98DE80700A0F5F9
:100D200000501F3800900398002D0ADD42F21F0189
:100D30004A460844002303A90390684604F006FCD1
:100D400009E0A0F500504A461F38002303A903908C
:100D5000684604F010FC8DE807000004000C03D086
:100D60004FF0FF30410800E01046B8F1000F03D00B
:100D70000022009215461EE0751E05D4FFF71AFFEB
:100D8000303262556D1EF9D5B3460122084302D0B8
:100D900000227F1C04E02078302801D100227F1E31
:100DA000002A099784D01DE0112D07DAFFF702FF12
:100DB000303262556D1C50EA0102F5D1084302D071
:100DC0000098C8B10EE00021681E05E0235C625C5B
:100DD00063542254401E491C8142F7DBAB46A81BDA
:100DE000401E0990002004F80B000B98099AC0F8E7
:100DF0000880C0E9002B7AE711264FF0000857E77A
:100E00002DE9F04F88460446D21D22F0070191B02B
:100E1000D1E90001CDE90A0104F0E4FC02460B9897
:100E2000C00F01D02D2007E02068810701D52B20BD
:100E300002E0202101EAC000032A099001D0072A1C
:100E400005DB03464146204600F0B4FC0BE1207868
:100E5000800601D5E06900E00620B8F1650F814603
:100E600006D0B8F1660F18D0B8F1670F70D131E035
:100E70000020B9F1110F009001DB112301E009F10D
:100E800001030AAA01A90CA8FFF7E2FEDDE90C7034
:100E9000002609F10105834647E001204B460090FA
:100EA0004FF000470AAA01A90CA8FFF7D1FEDDE91F
:100EB0000DB00C995D46002610B909F101000D181E
:100EC000B9EB050003D4C0F1FF3609F10105A5EB2C
:100ED00009002BE0B9F1010F01DA4FF00109002000
:100EE000B9F1110F0090484601DD112300E00346DF
:100EF0000AAA01A90CA8FFF7ABFEDDE90C704D466C
:100F000000268346207800070AD4AB4500DA5D4608
:100F100001A8012D04DD411911F8011C302907D069
:100F20004F4502DA17F1040F04DA012082460FE080
:100F30006D1EEEE7002F02DCED1B3E4403E0781C43
:100F4000A84200DD7D1CB81B00F1010A4FF00047EC
:100F50002078000703D4AA4501DB4FF0FF3A0021B7
:100F6000B7F1004F0DF143088DF8431024D0022053
:100F70002B23002F01DA7F422D230A21021EA0F12C
:100F8000010000DC5FB197FBF1FC97FBF1F201FB84
:100F90001C7C17460CF1300C08F801CDEEE7A8F1E7
:100FA000010003702188090501D5452100E0652174
:100FB000A0F1010800F8011C09980FA9A1EB08078E
:100FC000FF1D00B10120411901EBEA70A16938440D
:100FD000081A401EA0612078C00602D42046FFF700
:100FE00071F9099828B1D4E901219047206A401C81
:100FF00020622078C00622D52046FFF763F91EE064
:10100000002E04DBB34502DD01A8805D00E0302046
:10101000D4E901219047206A401C2062761CAAF185
:1010200001005FEA000A0AD100F0C0FBC068016855
:10103000405CD4E901219047206A401C2062281EB0
:10104000A5F10105DCDC07E0D4E9012118F8010B6A
:101050009047206A401C2062381EA7F10107F3DC8C
:101060002046FFF745F9032011B041E62DE9F04F86
:1010700004460D46D21D22F0070089B0D0E9009742
:101080004846394604F0AEFB0246F80F01D02D2346
:1010900007E02068810701D52B2302E0202101EA27
:1010A000C0038DF820300BB1012000E00020032A9E
:1010B000824601D0072A04DB2946204600F07AFB4D
:1010C0003FE12078800601D40D2500E0E569C7F3F3
:1010D0000A560D2D49DA00214FEA175B08464FF0FA
:1010E0000000002F00F4400007DA00EB80004FF40E
:1010F000400100EBD07001EA60008115012901DD9B
:101100004FF0FF3100224FEA850CBCF1180F06D3D7
:101110001346ACF118004FF08052C24003E04FF488
:10112000801323FA0CF30CF10C0CBCF1200F04D348
:10113000ACF1200C09FA0CF001E007FA0CF00029E0
:101140004FF0004801DD18B90FE00ED140450CD337
:1011500019EB02095F4121B9404502D19F4329EAB9
:101160000209BBEB175F00D0761C2088000502D572
:101170007B48784402E07A487844193808AA30233A
:1011800002F80A30037C0AF10101002E0AF1020A7A
:1011900053546A4602DC4FF0300101E04FF0310158
:1011A0004FF001088DF8001002D0A6F2FF3603E0E0
:1011B00059EA470100D06B4E002D02DC2178090767
:1011C00004D54FF002082E218DF80110C4460021ED
:1011D0000BE0C7F303433F01C35C491C6D1E02F8DB
:1011E0000830052908F1010801DA002DF1DC0021A1
:1011F0000CE000EB1973491C1B786D1E082902F8DE
:1012000008304FEA091908F1010801DA002DF0DC75
:1012100021688B0602D516E0A8F10108E04505DD3E
:1012200002EB080313F8013C302BF5D0B8F1000FA6
:1012300009DD02EB080313F8013C2E2B03D109074B
:1012400001D4A8F10108002D05DD3E2102F80810A7
:101250006D1E08F10108407C002E02F8080008F11C
:10126000010804DA2D20764202F8080002E02B2063
:1012700002F808000A214FF47A70864208F101084A
:101280000BDB96FBF0F3303302F8083096FBF0F3FB
:1012900008F1010800FB136601E0642E0CDB6420FA
:1012A00096FBF0F3303302F8083096FBF0F308F1C8
:1012B000010800FB136601E00A2E06DB96FBF1F045
:1012C000303002F8080008F1010896FBF1F001FB4C
:1012D0001060303002F80800A16908F1010808EB3D
:1012E000050202EB0A00081AA0612078C00602D4A9
:1012F0002046FEF7E7FF216A08AE01EB0A002062F4
:1013000004E0D4E9012116F8010B9047BAF1010A73
:10131000F7D22078C00602D52046FEF7D3FF6E46EE
:1013200009E016F8010B3E280FD0D4E901219047BF
:10133000206A401C2062B8F10108F2D22046FEF774
:10134000D7FF09B00320BDE8F08F206A284420624F
:1013500003E0D4E90121302090476D1EEBD3F8E77C
:101360005D47000002FCFFFF10B5436913B1AFF306
:10137000008001E0FFF7BCFA012010BD128800F1E7
:10138000240182840022C2840122EDE711684FF01B
:10139000FF32E9E72DE9F34F4FF0000A0C465646BD
:1013A0008DB001200C9001F10C000B9062690B983C
:1013B00001219047051E2DD0252D2CD0216A88476C
:1013C000C0B162690B9801219047216A88470028C3
:1013D000F7D16269411E0B98904700E0761CA16925
:1013E0000D988847216A88470028F7D1E1690D9850
:1013F0008847DBE7A1690D988847A842074601D1D5
:10140000761CD3E7E1690D9888477F1C02D1BAF1B9
:10141000000F6FD06BE162690B9800273D4639469B
:1014200090472A2804D162690B9801219047012531
:10143000DFF8D08262690B9801219047A0F130015A
:101440000A290AD24745E5DC07EB870100EB410793
:10145000303FDFD445F01005ECE7E90601D46FF02A
:1014600000476C280AD04C2814D0682815D06A2868
:101470000DD074281CD07A281AD01DE062690B9810
:10148000012190476C2802D045F0040514E045F096
:1014900002050DE045F020050AE062690B98012184
:1014A0009047682802D045F0080505E045F400653E
:1014B00062690B9801219047C4E9015765283DD026
:1014C00019DC58287AD00CDC452837D004DC2528D4
:1014D00026D041289ED131E046282FD0472899D1E7
:1014E0002CE05B2877D0612828D063287CD0642842
:1014F00023D15AE0F6E06F2848D008DC66281DD0DA
:1015000067281BD0692821D06E2816D127E07028C3
:1015100045D0732868D0752847D078280DD14DE084
:10152000A1690D988847252805463FF469AFE16910
:101530000D9888476D1C3FF46AAFD8E00D9923469B
:101540006A466FF00100AFF30080C5E045F040004F
:1015500023464FF000026060A80736D43EE0E8075B
:101560007FF447AF2068011D21600068290501D57F
:1015700006701BE7290701D5068017E7A90703D5E1
:10158000F117C0E9006111E706600FE745F0400080
:1015900023464FF008026060A80716D41EE040F60C
:1015A0000E0125EA0100606016E045F04000234688
:1015B0004FF00A026060A80707D40FE045F0400032
:1015C0006060A80708D5234610220D996FF001002E
:1015D000AFF3008080E007E0102223460D996FF002
:1015E0000100FEF7DDFF77E04FF0000963284F466A
:1015F000C8464B46CB4602D05B2806D038E0E8060A
:1016000001D40120A060012732E06269D4F80CB057
:101610000B98012190475E2807D14FF001094946F8
:101620006269D4F80CB00B989047216939B9002150
:101630000A4603AB43F82120491C0829FADBD8B33A
:10164000216949B308F1010862690B9801219047AB
:101650005D28F4D1B9F1000F09D0002003A951F899
:101660002020D24341F82020401C0828F7DB03ABA0
:101670002069002820794FEA40701ED05B46224640
:10168000CDF80080CDE901970D9900286FF0010099
:1016900020DAAFF300801FE0C11703AA00EBD1618D
:1016A0004B1121F01F0102EB8302411A1368012044
:1016B000884003431360C7E719E00D9922460028CC
:1016C0006FF00100009702DAAFF3008004E0AFF39F
:1016D000008001E0AFF3008000280ADA401C06D148
:1016E0000C9820B14FF0FF300FB0BDE8F08F50469E
:1016F000FAE7E90701D10AF1010A064400200C903B
:1017000054E60000CCCCCC0C2DE9F04116460C463A
:10171000054600F043F8036893F80101012807D05B
:10172000FF2C12D8185D80B101202C70BDE8F0812B
:10173000D3F807013246214603F20713C71828469B
:10174000BC46BDE8F041002360474FF0FF30EDE7B5
:10175000754600F0EBF8AE4605006946534620F0AA
:101760000700854618B020B5FEF772FDBDE82040A1
:101770004FF000064FF000074FF000084FF0000B4D
:10178000AC46ACE8C009ACE8C009ACE8C009ACE8BC
:10179000C00921F007018D467047000010B500F028
:1017A00005F8001D10BD00BFA140000000487047B3
:1017B000300000202DE9F0411F4604460326016851
:1017C000072A01F4006004DB08B116A505E016A5A0
:1017D00003E008B115A500E015A521F01000206078
:1017E000A069C01EA0610FB1401EA0612046FEF797
:1017F00069FD4FB1D4E9012138469047206A401C69
:101800002062C01C206206E0206AFAE7D4E90121C8
:1018100015F8010B9047761EF8D22046FEF768FDBA
:10182000BDE8F0814E414E006E616E00494E4600AB
:10183000696E66002DE9F047814616468AB0354844
:1018400078440DC88DE80D0032487844801C03AC04
:101850000DC884E80D0041F69B300844372190FB09
:10186000F1F290FBF1F5A5F1800501FB12041B3CA0
:1018700002D56442012000E00020DFF898A08046F5
:101880000027FA44AAF1BE0A0EE0E0070AD0324669
:10189000684607EB470101230AEB810103F06BFE69
:1018A0008DE8070064107F1C002CEED1194F7F4497
:1018B000AE3F19E0E80715D007EB04100DF1180A48
:1018C00090E80E008AE80E00C068F04201D1981935
:1018D00008903246012306A903A803F04CFE03AB8F
:1018E00083E807006D10641C002DE3D14FF0010365
:1018F00032466946B8F1000F03A802D003F026FE75
:1019000001E003F038FEC9E90001C9F808200AB077
:10191000BDE8F0872041000010B50446AFF3008019
:101920002046BDE81040FEF77EBC0000004870472E
:10193000100000204FF0013C50F8042B51F8043BFC
:101940009A4221D1A2EB0C03934313EACC1317D193
:1019500050F8042B51F8043B9A4215D1A2EB0C032A
:10196000934313EACC130BD150F8042B51F8043BEA
:101970009A4209D1A2EB0C03934313EACC13DBD0B8
:101980004FF00000704700BFD01A01BAB1FA81F1E0
:1019900001F0180122FA01F0CB40DBB2C0B2C01A4C
:1019A000C1F120012CFA01F3D11A914311EAC311BC
:1019B000E6D1704701491820ABBEFEE726000200C1
:1019C00070470000FEE7000040F21011C2F2000173
:1019D0000860704770470000014690F82100022817
:1019E00016D10868D1E90FC3026822F00E02026026
:1019F000026822F001020260012000FA03F2CCF832
:101A0000042081F821000020002281F82020704766
:101A1000042088630120002281F820207047000004
:101A200080B590F82110022924D10268116821F0B4
:101A30000E0111602F211368C4F202018A4240F2A4
:101A40000401C4F2020123F00103136016DD302308
:101A5000C4F202039A421DD04423C4F202039A4204
:101A60001CD05823C4F202039A421DD14FF4803394
:101A700022E000BF04218163012080BD0823C4F25D
:101A800002039A420ED01C23C4F202039A420BD1E5
:101A9000102311E04FF480730EE000BF4FF4805329
:101AA0000AE000BF012307E001F1680C4FF08073EA
:101AB000624508BF4FF480130B60012180F82110AC
:101AC000426B002180F820100AB19047002108469F
:101AD00080BD0000B0B5044600F02AF9054640F28A
:101AE0000000C2F200000078611C18BF044400BF6F
:101AF00000F01EF9401BA042FAD3B0BD2DE9F04F13
:101B000082B00E68002E00F0038141F20042C4F260
:101B10000102042340F2004E904208BF03234FF617
:101B2000FF7CC4F2010E009300240123C1F2100CCB
:101B30004FF0000A4FF0000949E000BF012704F010
:101B40000C030F229A402BEA020207FA03F34FEA32
:101B50009A051A4346F82520D1F804B040F20C4506
:101B60005FEACB22DEF8082054BF22EA080242EAEC
:101B70000802C4F20105CEF808202A685FEA8B2328
:101B800054BF22EA080242EA08022A605FEA8B3365
:101B9000DEF8042054BF22EA080242EA08025FEAA3
:101BA000CB33CEF80420DEF800204FF0010354BF01
:101BB00022EA080242EA0802CEF800200E680AF182
:101BC000010A36FA0AF204F1040400F0A18003FAD3
:101BD0000AF816EA080FF1D04E68664512DC122E9C
:101BE00056D8DFE806F0350B45495555555555553E
:101BF000555555555555554D510000BFD1F80C90D0
:101C000046E000BF4FF6FF72C1F2210296420FDCA0
:101C10000022C1F2110296421AD00022C1F2120231
:101C2000964215D00022C1F22102964210D02FE038
:101C30000022C1F2220296420AD00022C1F23102F1
:101C4000964205D00022C1F23202964220D100BF56
:101C50008A684AB1012A14BFC0F81480C0F8108005
:101C60004FF0080914E000BF4FF0040910E000BF76
:101C7000CA6802F108090BE04FF0000908E000BF54
:101C8000CA6802F1040903E0CA6802F10C0900BF46
:101C900022460646BAF1080F24BF203A04363768B8
:101CA0000F25954027EA050509FA02F22A4332601A
:101CB000CA79D2067FF582AF41F21803C4F202035B
:101CC0001A68AEF57E7642F001021A601A6802F0D8
:101CD00001020192019A2AF0030256F802B040F67E
:101CE0000002C4F20102904210D040F60042C4F259
:101CF000010290423FF422AF41F20002C4F201021D
:101D0000009F904208BF022719E700BF002716E78F
:101D100002B0BDE8F08F00008068084018BF0120C5
:101D200070470000002A08BF0904016170470000E5
:101D300040F2B010C2F200000068704770B5B8B34E
:101D4000044690F83D0028B9002084F83C00204665
:101D500000F0F4FD242084F83D002068016821F0A3
:101D600001010160016841F400410160016821F452
:101D70000041016000F0ACFF48F28041C0F21E015A
:101D800040F60013D4F804E088424FF00001C0F29E
:101D90003D0348F2A16C4FF0000238BF0121984288
:101DA000C0F2010C38BF0122E64538BF0A460AB12D
:101DB000012070BD4DF68361C4F21B31A0FB0112FE
:101DC0002168950C4B684FF4967623F03F0343EA65
:101DD0009243754344F6D3564B60C1F262060B6AD8
:101DE000A5FB0656B50923F03F03E64538BF950C21
:101DF0006A1C1A430A62CA6948F2A0664CF6FF736D
:101E0000C0F20106B64522EA03020BD801384FEAB8
:101E10004E03B0FBF3F001306FF31F30042898BF7E
:101E200004201EE0A368013863B119230EFB03F3FD
:101E3000B0FBF3F001306FF31F3078B100F5804054
:101E400008E000BF0EEB4E03B0FBF3F001306FF380
:101E50001F3028B100F5004003E000BF012000E082
:101E600001201043C8610868D4E9072320F0C000AE
:101E7000104318430860886848F2FF3204F10C06EA
:101E800090434CCE18431043A5698860C86820F081
:101E9000FF0030432843C860086840F00100086034
:101EA00000202021206484F83D10206384F83E0047
:101EB00070BD00002DE9F04784B0044600201F46A5
:101EC000164689460290FFF733FF94F83D1020290B
:101ED00020D10546206800BF8169890716D5FFF724
:101EE00027FF411B20681A29F6D381698907F3D59A
:101EF00000202021206384F83D1084F83E00216CEE
:101F000041F02001216484F83C0003E094F83C1087
:101F1000012903D1022004B0BDE8F087012184F833
:101F20003C100168C90703D1016841F0010101605B
:101F30000168DDF8308021F400610160222184F81D
:101F40003D10102184F83E100021216466626785EF
:101F5000618D0227C0F201072185A7F10211E1621C
:101F6000E16A026811F5803F42F48062026018BFA6
:101F700001293DD1016841F48071016020464FF094
:101F8000011100224346009501F0D4FD50B12068B4
:101F90000068C00544BF4FF400702064012004B005
:101FA000BDE8F0872069B0F5804F27D149F00100E6
:101FB000C0B2216842460861204639462B4601F0EE
:101FC000A3FE0028EAD1208D02284BD001285FD043
:101FD000002840F07380002003902068416903913D
:101FE000816903910399016841F40071016071E016
:101FF0000829BFD0216B1129BCD0BFE7062000EA19
:10200000D916206806F1F0010161B91D204642464B
:102010002B4601F079FE0028C0D120685FFA89F1D3
:1020200001612046394642462B4601F06DFE0028EC
:10203000B4D10020039020680022416943460391F7
:10204000816903910399016841F480710160204620
:102050004FF00111009501F06DFD002897D146F079
:10206000F100A6E72068016841F400610160EFF328
:10207000108072B600200390206841690391816945
:1020800003910399016821F48061016062B621E047
:102090002068016821F480610160EFF3108072B65E
:1020A000002003902068416903918169039103999D
:1020B000016841F40071016062B60BE020680168BC
:1020C00041F48061016000210391416903918069BD
:1020D00003900398208D002800F0CC8040F208097E
:1020E0004BF2895A0237C2F20009C1F2F84A23269C
:1020F0000EE000BF10690870606A218D01306062D7
:10210000481E2085618D01396185010400F0B2808F
:1021100080B203280CD802282CD001284AD12046AE
:1021200041462A4601F060FE002800F09F8035E716
:10213000204641462A4601F057FE00287FF42EAF84
:102140002068616A00690870606A2268411C208DFD
:10215000616201382085638D013B638553695B07AC
:10216000D3D580B20328C5D1106820F480601060F8
:10217000C0E700BF2046394600224346009501F0E3
:10218000D9FC00287FF40AAFEFF3108072B6206804
:10219000616A026842F40072026000690870606A55
:1021A000218D01306062481E2085608D0138608578
:1021B00062B65BE02046394600224346009501F0B6
:1021C000B9FC00287FF4EAAE2068016821F4806140
:1021D0000160EFF3108072B62068616A00690870D0
:1021E000606A218D0130013960622185618D01397C
:1021F0006185D9F80010C908A1FB0A12110A7143C0
:102200000291029901390291029900293ED0216878
:102210004A6952071AD40299013902910299A9B365
:1022200021684A69520711D4029901390291029931
:1022300061B321684A69520708D4029901390291B1
:10224000029919B321684A695207DAD50A6842F43B
:1022500000720A6009690170606A218D0130606254
:10226000481E2085608D0138608562B62068616AED
:10227000006940E7202084F83D00002084F83E00FB
:1022800084F83C0004B0BDE8F08700BF00202021A6
:10229000206384F83D1084F83E00216C41F0200159
:1022A000216462B684F83C00012004B0BDE8F087E8
:1022B0002DE9F04383B01E46174689460446FFF7D2
:1022C00037FD94F83D10202920D10546206800BF35
:1022D0008169890716D5FFF72BFD411B20681A2954
:1022E000F6D381698907F3D500202021206384F883
:1022F0003D1084F83E00216C41F02001216484F8F7
:102300003C0003E094F83C10012903D1022003B003
:10231000BDE8F083012184F83C100168C90703D1AE
:10232000016841F001010160016840F2020821F4F6
:1023300000610160212184F83D10102184F83E10D5
:102340000021216467626685618DC0F201082185E4
:10235000A8F10211E162E16A0A9E11F5803F18BFFF
:1023600001291DD1016841F48071016020464FF0C0
:10237000011100223346009501F0DCFB50B12068CA
:102380000068C00544BF4FF400702064012003B012
:10239000BDE8F0832069B0F5804F07D1FE2015E03D
:1023A0000829DFD0216B1229DCD0DFE7062000EA04
:1023B000D9102168F030086108F106012046324644
:1023C0002B4601F0A1FC0028E0D1FF20216800EAA3
:1023D000090008612046414632462B4601F094FC34
:1023E0000028D3D1002002902068416902918069C1
:1023F0000290029806E000BF204631462A4601F0CE
:1024000039FB18BB208D68B3204631462A4601F0BF
:1024100033FDD8B9606A2168024612F8013B0B61AE
:102420006262628D013A6285228D531E23854F6957
:102430007F07E1D51B04DFD0437802300B61606277
:10244000608D01386085901E2085D5E7206C0428BA
:102450009CD12068016841F400710160012003B043
:10246000BDE8F0832068016841F40071016020201C
:1024700084F83D00002084F83E0084F83C0003B05E
:10248000BDE8F0832DE9F04F85B004460020994661
:1024900016460F460490FFF74BFC94F83D10202998
:1024A00027D10546206800BF816989071CD5FFF741
:1024B0003FFC411B20681A29F6D381698907F3D5AF
:1024C00000202021206384F83D1084F83E00206C19
:1024D00004F13C0A40F020002064022000218AF828
:1024E000001005B0BDE8F08FA2461AF83C1F012984
:1024F00004D1022005B0BDE8F08F00BF01228AF8A8
:1025000000200368DDE90F180E9ADB0703D103688A
:1025100043F001030360036823F400630360222097
:1025200084F83D00402084F83E0000202064626270
:102530006185608D394620850020CFF6FF70E0620E
:10254000204632464B46CDF80080019501F0A2F9B5
:1025500020B1012005B0BDE8F08F00BF208D02281A
:1025600010D0012824D0002838D100200390206802
:1025700041690391816903910399016841F40071F4
:10258000016037E02068016841F400610160EFF309
:10259000108072B600200390206841690391816920
:1025A00003910399016821F48061016062B621E022
:1025B0002068016821F480610160EFF3108072B639
:1025C0000020039020684169039181690391039978
:1025D000016841F40071016062B60BE02068016897
:1025E00041F4806101600021039141690391806998
:1025F00003900398208D002800F0D480042740F237
:1026000008094BF2895BC0F20107C2F20009C1F26E
:10261000F84B232617E000BF204641462A4601F02A
:10262000E3FB002895D12068616A00690870606A40
:10263000218D01306062481E2085618D01396185E0
:10264000010400F0AF8080B2032867D8022800F0B0
:1026500089800128E0D02046394600224346009573
:1026600001F068FA00287FF474AF2068016821F453
:1026700080610160EFF3108072B62068616A0069C2
:102680000870606A218D0130013960622185618D99
:1026900001396185D9F80010C908A1FB0B12110A94
:1026A000714304910499013904910499002900F0BF
:1026B000858021684A6952071ED404990139049122
:1026C0000499002900F07A8021684A69520713D4DE
:1026D000049901390491049900296FD021684A694D
:1026E000520709D40499013904910499002965D04D
:1026F00021684A695207D5D50A6842F400720A6017
:1027000009690170606A218D01306062481E208570
:10271000608D0138608562B685E700BF204641467E
:102720002A4601F061FB00287FF413AF2068616A3C
:1027300000690870606A2268411C208D616201385E
:102740002085638D013B638553695B077FF578AF17
:1027500080B2032803D1106820F4806010601069F3
:1027600064E700BF2046394600224346009501F049
:10277000E1F900287FF4EDAEEFF3108072B6206827
:10278000616A026842F40072026000690870606A5F
:10279000218D01306062481E2085608D0138608582
:1027A00062B640E7202084F83D00002084F83E0017
:1027B00000218AF8001005B0BDE8F08F002020212C
:1027C000206384F83D1084F83E00206C40F0200027
:1027D000206462B6012000218AF8001005B0BDE82F
:1027E000F08F00002DE9F04383B0994616460F465E
:1027F0000446FFF79DFA94F83D10202920D10546A4
:10280000206800BF8169890716D5FFF791FA411B3F
:1028100020681A29F6D381698907F3D50020202181
:10282000206384F83D1084F83E00216C41F02001C3
:10283000216484F83C0003E094F83C10012903D1A2
:10284000022003B0BDE8F083012284F83C20036835
:10285000DDE90B180A9ADB0703D1036843F0010393
:102860000360036823F400630360212084F83D00C3
:10287000402084F83E000020206462626185608D03
:10288000394620850020CFF6FF70E06220463246B0
:102890004B46CDF80080019501F088F820B1012069
:1028A00003B0BDE8F08300BF208D98B920464146B3
:1028B0002A4601F0DFF888B3206C0428EFD12068A5
:1028C000016841F400710160012003B0BDE8F083AC
:1028D0000004EBD0204641462A4601F0CDFA0028FC
:1028E000EAD1616A2268084610F8013B1361238D22
:1028F0006062581E2085678D013F678557697F0795
:10290000E6D50704E4D048781061881C6062981E00
:102910002085618D01396185DAE700BF2068016893
:1029200041F400710160202084F83D00002084F80B
:102930003E0084F83C0003B0BDE8F08310B586B0DB
:1029400045F200410068C4F200010022884204926E
:1029500002D006B010BD00BF41F21804C4F2020458
:10296000206840F008002060206800F00800019016
:102970000198C0200290122003900320059001F5D9
:10298000384002A9FFF7BAF8606840F400106060B0
:10299000606800F400100190019806B010BD0000BE
:1029A00040F2000040F2B011C2F20000C2F2000199
:1029B00000780A68104408607047000080B542F251
:1029C0000000C4F20200016841F010010160032020
:1029D00000F08EF80F2000F005F800F027F8002036
:1029E00080BD000070B540F20006C2F2000640F261
:1029F00008013278C2F200014FF47A730968B3FB20
:102A0000F2F20446B1FBF2F1084600F063FB0F2C32
:102A10004FF0010508D838B94FF0FF3021460022A9
:102A2000002500F039F87460284670BD82B041F28C
:102A30001800C4F202000168022241F001010160A5
:102A4000016801F0010101910199416841F0805153
:102A50004160406800F08050009000980420C4F26B
:102A60000100016862F31A61016002B07047000062
:102A7000002848BF7047C1B200F01F00012202FACF
:102A800000F04EF20012CEF2000242EAD10121F033
:102A9000030108607047000010B54EF60C5CCEF2E2
:102AA000000CDCF80030C3F3022E8EF00704042C77
:102AB00028BF0424BEF103034FF0FF3E0EFA04F4D6
:102AC00038BF0023A14399400EFA03F39A43114300
:102AD00000F00F0200F160430901043A03F564437A
:102AE0006244002848BF02F10C03197010BD0000B9
:102AF0004EF60C51CEF200010A684FF6FF031A4061
:102B000060F30A2242F0806040F0FD700860704778
:102B10002DE9F04381B0002800F0858042F20008E2
:102B2000C4F202080446D8F800000D4600F0070081
:102B300088420CD2D8F8000020F007002843C8F8DB
:102B40000000D8F8000000F00700A8426BD1206810
:102B500041F204098107C4F2020917D5410705D5DE
:102B6000D9F8001041F4E061C9F80010010705D55B
:102B7000D9F8001041F46051C9F80010D9F80010DC
:102B8000A26821F0F0011143C9F80010C00741D13B
:102B9000D8F8000000F00700A8420CD9D8F80000CF
:102BA00020F007002843C8F80000D8F8000000F023
:102BB0000700A84237D12068410707D5D9F800108F
:102BC000E26821F4E0611143C9F80010000708D55C
:102BD000D9F80000216920F4605040EAC100C9F82A
:102BE0000000D9F8002002F00C00082841F2002073
:102BF000C0F27A0050D145F6AB13C2F38341C0F660
:102C00000003595CD2033BD440F60010C0F23D00F3
:102C1000484341E0606802280AD001282AD159F8C7
:102C2000041C890308D4012001B0BDE8F08300BF73
:102C300059F8041C8901F6D5D9F8001021F00301D8
:102C40000843C9F80000FFF773F8064641F28837D9
:102C5000D9F80000616800F00C00B0EB810F97D04C
:102C6000FFF766F8801BB842F2D9032001B0BDE837
:102C7000F08300BF59F8041C8907D4D5DCE700BFF6
:102C8000D9F8002045F69413C2F34042C0F6000381
:102C90009A5C4843B0FBF2F0D9F8001045F67C127C
:102CA000C1F30311C0F60002515C40F2080220FAA1
:102CB00001F140F20400C2F200000068C2F200021A
:102CC0001160FFF78FFE002001B0BDE8F083000027
:102CD00040F2080041F20401C2F20000C4F2020115
:102CE0000068096845F68C12C1F30221C0F60002A3
:102CF000515CC8407047000040F2080041F20401F6
:102D0000C2F20000C4F202010068096845F68C12A4
:102D1000C1F3C221C0F60002515CC84070470000F8
:102D20002DE9F04182B0002868D00446007841F2D5
:102D30000006C007C4F2020625D0706800F00C003F
:102D400004281BD0706800F00C00082802D17068BD
:102D5000C00313D46068002800F06881B0F5A02F8C
:102D600000F07C81B0F5803F00F07C81306820F479
:102D700080303060306820F4802076E13068800355
:102D800001D56068D0B32078800718D5706810F03E
:102D90000C0F07D0706800F00C0008286ED1706826
:102DA000C0036BD43068800702D52069012825D183
:102DB0003068616920F0F80040EAC1003060207896
:102DC00000071FD42078400732D4E56995B17068B8
:102DD00000F00C00082840F08F80012D0ED07068A4
:102DE000216A00F480328A4208D1616A00F47010CE
:102DF000884203D1002002B0BDE8F081012002B07A
:102E0000BDE8F081A069002862D00020C4F2422011
:102E10000121C0F88014FEF78BFF0546706A800719
:102E200000F18C80FEF784FF401B0228F6D92AE1CE
:102E3000F06910F0805808D1F06940F08050F061DE
:102E4000F06900F080500090009847F20007C4F24B
:102E500000073868C00529D4386840F480703860AD
:102E6000FEF766FF054600BF3868C0051ED4FEF7B2
:102E70005FFF401B6428F7D905E100BF20690028E7
:102E800040F20000C4F2422000F082800121016083
:102E9000FEF74EFF054600BF306880073FF588AF5C
:102EA000FEF746FF401B0228F6D9ECE0E068002858
:102EB00000F08080052800F09780012800F09880BD
:102EC000306A20F001003062306A20F0040092E0A5
:102ED0000020C4F242200021C0F88014FEF728FF31
:102EE000054600BF706A80077FF56CAFFEF720FFD4
:102EF000401B0228F6D9C6E00027C4F24227002072
:102F00003866FEF715FF022D05460BD130688001AB
:102F100040F1BE80FEF70CFF401B02284FF003007B
:102F2000F4D968E7306880017FF564AFFEF700FFF1
:102F3000401B02284FF00300F4D95CE740F2080080
:102F4000C2F20000006844F6D351C1F26201A0FB56
:102F50000101480A019000BF00BF0198411E0028EE
:102F600001913FF42FAF00BF0198411E002801914D
:102F70003FF428AF00BF0198411E002801913FF4A3
:102F800021AF00BF0198411E00280191E4D119E74B
:102F900000210160FEF7CCFE054600BF30688007C7
:102FA0007FF50DAFFEF7C4FE401B02284FF0030073
:102FB000F4D920E7306A20F001003062306A20F056
:102FC00004003062FEF7B4FE054641F2883700BFC8
:102FD000306A800720D5FEF7ABFE401BB8424FF0A9
:102FE0000300F5D907E700BF306A40F00400306203
:102FF000306A40F001003062FEF79AFE054641F269
:10300000883700BF306A800706D4FEF791FE401B68
:10301000B842F7D937E000BFB8F1000F7FF4D5AE62
:10302000F06920F08050F061CFE600BF306820F4F6
:1030300080303060306820F480203060FEF778FE09
:10304000054600BF306880037FF59DAEFEF770FE39
:10305000401B64284FF00300F4D9CCE6306840F4FC
:1030600080203060306840F480303060FEF760FED1
:10307000054600BF306880033FF585AEFEF758FE79
:10308000401B6428F6D9032002B0BDE8F08100BFE0
:10309000206AB0F5803F05D17168A26821F4003143
:1030A000114371607168626A21F47411114308431D
:1030B000706001203866FEF73BFE044630688001F0
:1030C0003FF598AEFEF734FE001B02284FF00300D8
:1030D000F4D990E6411E0020B0EB116F1CBF012017
:1030E00070474EF21002CEF2000251604EF62351AC
:1030F000CEF20001F0230B70072190601160704741
:103100007047000070470000B0B582B00446006808
:103110000168C368426901F02F05202D03F02005E6
:1031200006D12DB1204602B0BDE8B04000F016BF78
:103130005FEA017C1EBF02F0010E03F4907212EBF5
:103140000E0253D1226B012A05D111F0100218BFD3
:1031500013F0100236D10A0622D513F080021FD0D8
:1031600094F8411021293FD1A168B1F5805F03D1C6
:103170002169002900F07082216A4A1C22620978C4
:103180004160E18C01390A04E1842DD1C16821F04C
:103190008001C160C16841F04001C16002B0B0BDB2
:1031A000490621D513F040011ED0C16821F040012D
:1031B000C1602021204684F8411002B0BDE8B04033
:1031C00000F064BB00210191016801914168019107
:1031D00001994069400613D4A08DE18DE28D002A4B
:1031E00018BF884240F0BA8102B0B0BDCA0718BF0C
:1031F00013F4807240F0B6804A0700F1B980BEE057
:10320000E06B016849688AB2002AEDD0A38D9A422A
:10321000EAD2E1858069202800F09C80206850E88F
:10322000030F216820F4807041E80302DAB12068BE
:1032300050E8030F216820F4807041E8030292B146
:10324000206850E8030F216820F4807041E80302F1
:103250004AB1206850E8030F216820F4807041E8EB
:103260000302002ADAD1206850E8050F216820F017
:10327000010041E80502DAB1206850E8050F216835
:1032800020F0010041E8050292B1206850E8050FE6
:10329000216820F0010041E805024AB1206850E8A9
:1032A000050F216820F0010041E80502002ADAD16B
:1032B000206850E8050F216820F0400041E8050231
:1032C000DAB1206850E8050F216820F0400041E89D
:1032D000050292B1206850E8050F216820F04000F7
:1032E00041E805024AB1206850E8050F216820F046
:1032F000400041E80502002ADAD1202084F842008B
:1033000000202063206850E8030F216820F010009F
:1033100041E80302DAB1206850E8030F216820F089
:10332000100041E8030292B1206850E8030F2168C1
:1033300020F0100041E803024AB1206850E8030F72
:10334000216820F0100041E80302002ADAD1E06B86
:10335000FEF742FB02206063A08DE18D401A81B22E
:10336000204674E1626C42F0010262644A0706D5AD
:10337000BEF1000F03D0626C42F0020262648A0761
:1033800006D5BEF1000F03D0626C42F00402626405
:10339000BCF1000F09D545EA0E02B2FA82F25209D9
:1033A00003D1626C42F008026264626C002A3FF44E
:1033B0001BAF11F0200118BF002D03D0204600F0F4
:1033C000CDFD20684069616C00F0400001F008010B
:1033D000401800F0B58000BF206850E8030F216856
:1033E00020F4907041E80302BAB3206850E8030F5C
:1033F000216820F4907041E8030272B3206850E81D
:10340000030F216820F4907041E803022AB320687A
:1034100050E8030F216820F4907041E80302002A6D
:10342000DAD11AE0206850E8050F216820F0010089
:1034300041E80502DAB1206850E8050F216820F064
:10344000010041E8050292B1206850E8050F2168AB
:1034500020F0010041E805024AB1206850E8050F5C
:10346000216820F0010041E80502002ADAD1206B32
:10347000012824D1206850E8030F216820F01000B3
:1034800041E80302DAB1206850E8030F216820F018
:10349000100041E8030292B1206850E8030F216850
:1034A00020F0100041E803024AB1206850E8030F01
:1034B000216820F0100041E80302002ADAD1202020
:1034C00084F84200002020632068406940063FD510
:1034D000206850E8050F216820F0400041E805020F
:1034E000DAB1206850E8050F216820F0400041E87B
:1034F000050292B1206850E8050F216820F04000D5
:1035000041E805024AB1206850E8050F216820F023
:10351000400041E80502002ADAD1E06BC0B143F671
:103520005171C0F600014163FEF77AFA00283FF4BA
:103530005BAEE06B416B02B0BDE8B040084700BF36
:103540002046FFF7DFFD0020606402B0B0BD00BF81
:10355000204602B0BDE8B040FFF7D4BD401A216854
:1035600051E8031F226821F4907142E80313DBB194
:10357000216851E8031F226821F4907142E8031387
:1035800093B1216851E8031F226821F4907142E849
:1035900003134BB1216851E8031F226821F4907195
:1035A00042E80313002BDAD1216851E8051F226895
:1035B00021F0010142E80513DBB1216851E8051F44
:1035C000226821F0010142E8051393B1216851E816
:1035D000051F226821F0010142E805134BB1216863
:1035E00051E8051F226821F0010142E80513002B74
:1035F000DAD1202184F8421000212163216851E8AA
:10360000031F226821F0100142E80313DBB1216897
:1036100051E8031F226821F0100142E8031393B11F
:10362000216851E8031F226821F0100142E80313CA
:103630004BB1216851E8031F226821F0100142E8D4
:103640000313002BDAD1022281B22046626302B05A
:10365000BDE8B040FFF754BD216A31F8022B6FF38B
:103660005F22426021628CE5002804BF0120704780
:1036700010B5044690F8410028B9002084F84000B5
:10368000204600F063F8242084F841002068D4E943
:103690000212C36823F40053C360036923F4405348
:1036A0001A430261D4E904231143C268194341F269
:1036B0000C639A431143C1604169A26921F44071CE
:1036C000114343F60002C4F201029042416103D06B
:1036D000FFF7FEFA02E000BFFFF70EFB6268192158
:1036E00048439100B0FBF1F048F21F51C5F2EB11D5
:1036F000A0FB01235A094FF69C73C0F6FF7302FB2F
:103700000300322303EB0010A0FB0101F02303EAC6
:103710005113206803EB0212C1F34311114481607D
:10372000016921F490410161416921F02A0141615F
:10373000C16841F40051C16000202021606484F818
:10374000411084F84210606310BD000070B586B06F
:1037500040F60004C4F20104006804F5405100265C
:103760008842049602D006B070BD00BF41F2180036
:10377000C4F20200016802AD41F4804101600168B9
:1037800001F4804101910199016841F00401016057
:103790000068294600F00400019001984FF4007081
:1037A000029002200390032005902046FEF7A6F920
:1037B0004FF48060CDE90206204629460496FEF7C4
:1037C0009DF9252000210022FFF766F92520FFF74B
:1037D0004FF906B070BD000090F84230202B1CBF9E
:1037E0000220704700294FF0010318BF002A01D1C1
:1037F0001846704700230363816222218285C285B7
:10380000436480F842100169006819B1C16841F44D
:103810008071C1604169002341F001014161C168CB
:1038200041F02001C16018467047000010B50068E3
:1038300043F60001C4F20101884218BF10BD40F2F6
:103840007004C2F20004A07961780A280AD01E2907
:1038500008D84A1C627040F2D802C2F20002114439
:10386000087609E040F2D800C2F2000018300022C9
:103870004254627001F0D8F940F26810A11DC2F202
:1038800000000122BDE81040FFF7A6BF704700000E
:10389000FEE700002DE9F04782B0044600680E46BE
:1038A0000168DDF828A041F4806101600168DDF85D
:1038B0002C9041F480711D461746016020464FF060
:1038C000011100225346CDF8009000F033F958B1B1
:1038D00020680068C00544BF4FF4007020640320D6
:1038E00002B0BDE8F08700BF40F202082068C0F2D5
:1038F000010806F0FE0606612046414652464B4648
:1039000000F002FA20B1012002B0BDE8F08700BF4C
:103910000020019020684A46416901918069514622
:1039200001900198204600F0A7FA98B92068012D6F
:1039300008D0390A0161204651464A4600F09CFAF7
:1039400040B92068F9B20161204651464A4600F06C
:1039500093FA58B1206C0428D5D12068016841F44D
:1039600000710160012002B0BDE8F08720680022EC
:103970000168534641F48071016020464FF0011107
:10398000CDF8009000F0D6F80028A1D1206846F0CC
:10399000010101612046414652464B4600F0B4F910
:1039A000002818BF012002B0BDE8F0872DE9F043E0
:1039B00083B0044600680D4601680A9F0B9E41F4DF
:1039C000807199469046016020464FF00111002217
:1039D0003B46009600F0AEF850B120680068C00584
:1039E00044BF4FF400702064032003B0BDE8F083AF
:1039F000206805F0FE0101610221C0F201012046AC
:103A00003A46334600F080F920B1012003B0BDE80A
:103A1000F08300BF00200290206832464169029185
:103A20008069394602900298204600F025FA58B184
:103A3000206C0428E9D12068016841F4007101601C
:103A4000012003B0BDE8F0832068B9F1010F0AD06E
:103A50004FEA1821016120463946324600F00CFA3F
:103A60000028E5D120685FFA88F10161002003B0E9
:103A7000BDE8F08370B50368044653F8140F40079F
:103A800011D40E46481C29D086BB00BF18684005DB
:103A900027D4FEF74DF9236853F8140F400739D5A2
:103AA00018684007F2D5002070BD00BF18684007B5
:103AB000F9D41868400514D418684007F3D418687E
:103AC00040050ED418684007EDD41868400508D4A6
:103AD000186840074FF0000048BF70BD18684005E7
:103AE000E4D56FF480601860042014E0154603E00C
:103AF00053F8140F4007D6D418684005F1D4FEF7E8
:103B000017F9401B2368B042F2D958694007EFD437
:103B1000202000E0202000212022216384F83D2085
:103B200084F83E10226C10432064012084F83C107D
:103B300070BD00002DE9F041054600681E461446A0
:103B400001F47F0201338FB242D0DDF81880B2F564
:103B5000803F40F0878040693840C01BB0FA80F059
:103B60004009A04240F0C8804EB924E04069384086
:103B7000C01BB0FA80F04009A04240F0BD80FEF7C3
:103B8000D7F8A0EB08012868B142EFD94169394064
:103B9000C91BB1FA81F14909A142E7D19BE000BFFD
:103BA00040693840C01BB0FA80F04009A0424FF095
:103BB000000040F0A680FEF7BBF828684169394054
:103BC000C91BB1FA81F14909A142E9D183E000BFE3
:103BD000B2F5803F24D100BF41693940C91BB1FA19
:103BE00081F14909A14240F0878041693940C91BF0
:103BF000B1FA81F14909A14240F07E804169394022
:103C0000C91BB1FA81F14909A14275D14169394015
:103C1000C91BB1FA81F14909A142DDD06CE000BFB6
:103C200081693940C91BB1FA81F14909A14263D1C7
:103C300081693940C91BB1FA81F14909A1425BD1BF
:103C400081693940C91BB1FA81F14909A14253D1B7
:103C500081693940C91BB1FA81F14909A142DFD01C
:103C60004AE000BF80693840C01BB0FA80F04009CC
:103C7000A04241D146B923E080693840C01BB0FA68
:103C800080F04009A0423BD1FEF752F8A0EB0801BA
:103C90002868B142F0D981693940C91BB1FA81F174
:103CA0004909A142E8D116E080693840C01BB0FA4A
:103CB00080F04009A0424FF0000018BFBDE8F0813D
:103CC000FEF736F8286881693940C91BB1FA81F1DD
:103CD0004909A142E8D100202021286385F83D1040
:103CE00085F83E00296C41F02001296485F83C00EC
:103CF0000120BDE8F08100BF0020BDE8F08100BFD9
:103D00000020BDE8F0810000F0B581B004460068F5
:103D10001D4643698FB203EA0701B94202D1002070
:103D200001B0F0BD41691646013201F4806125D031
:103D3000002940D1CEB100BFFDF7FAFF411B20683A
:103D4000B14203D941693940B9424BD14169394047
:103D5000B942E4D041694905EED52CE041693940CA
:103D6000B942DCD04169490525D4FDF7E1FF20685F
:103D700041693940B942F1D0202024E0D9B94169E4
:103D80003940B942CBD04169490514D44169394021
:103D9000B942C4D0416949050DD441693940B9429D
:103DA000BDD04169490506D441693940B942B6D010
:103DB00041694905E3D5016841F4007101606FF480
:103DC00080614161042000212022216384F83D208C
:103DD00084F83E10226C1043206484F83C100120CB
:103DE00001B0F0BD2020EEE770B50446006815462E
:103DF00050F8143F5A063DD40E4629B926E000BFBC
:103E000050F8141F490635D40168C90621D4FDF7BE
:103E10008FFF411B2068B142F2D941694906EFD4B6
:103E200000202021206384F83D1084F83E00206C9F
:103E300040F0200018E000BFFDF77AFF206850F83E
:103E4000141F4906ECD50168490613D40168C90658
:103E5000F2D56FF01001016000202021206384F86A
:103E60003D1084F83E00206C2064002084F83C0063
:103E7000012070BD002070BD70B50368044653F882
:103E8000140F000611D40E46481C29D086BB00BF73
:103E90001868400527D4FDF74BFF236853F8140F2B
:103EA000000639D518680006F2D5002070BD00BFA5
:103EB00018680006F9D41868400514D4186800067C
:103EC000F3D4186840050ED418680006EDD41868BD
:103ED000400508D4186800064FF0000048BF70BDC8
:103EE00018684005E4D56FF480601860042014E081
:103EF000154603E053F8140F0006D6D418684005A1
:103F0000F1D4FDF715FF401B2368B042F2D9586980
:103F10000006EFD4202000E0202000212022216391
:103F200084F83D2084F83E10226C10432064012068
:103F300084F83C1070BD0000FEE70000FEE70000C2
:103F40007047000070470000FEF72ABD7047000070
:103F5000406A0021C185C184FFF7D4B881B090F8D0
:103F60004210222921D183680246B3F5805F09D12E
:103F700052F8281F52F8183C002B63D003685B6886
:103F80000AE000BF52F8281F13B90369002BF5D0CF
:103F900003685B6803F07F030B70116801311160E7
:103FA000C18D01390A04C18502D001B0704700BF3C
:103FB0000168CA6822F02002CA60CA6822F48072CE
:103FC000CA604A6922F001024A61202180F8421049
:103FD00000214163026B012A3CD10163016851E871
:103FE000031F026821F0100142E80313DBB10168EE
:103FF00051E8031F026821F0100142E8031393B156
:10400000016851E8031F026821F0100142E8031320
:104010004BB1016851E8031F026821F0100142E82A
:104020000313002BDAD101680A68D20606D50022F4
:1040300000920A680092496800910099818D01B050
:10404000FFF75EB8026852686FF35F2221F8022B17
:104050008162A5E701B0FFF7E9BB000040F26810FC
:10406000C2F20000FFF750B8FEE70000B0B540F222
:104070007001C2F200018A78013A072A88BFB0BDF8
:10408000DFE802F0041628384852646E91F82620C2
:10409000002875D0013250B21728C8BF002201F1A4
:1040A000240081F82620BDE8B04000F0CFBE00BF5C
:1040B00091F82520002871D0013250B23B28C8BFAA
:1040C000002201F1240081F82520BDE8B04000F075
:1040D000BDBE00BF91F8242000286DD0501C42B214
:1040E0003B2AC8BF002001F8240F0846BDE8B040B5
:1040F00000F0ACBE91F829200C2A00F2D3800123F5
:1041000003FA02FC41F2AA531CEA030F32D01F2229
:10411000C9E000BF91F82920002859D0501C40B2B6
:104120000C2859DD01208AE091F82A20002861D06E
:10413000013250B26328C8BF002201F1240081F887
:104140002A20BDE8B04000F081BE00BF0A790028F7
:104150005ED0501C42B2172AC8BF00200871B0BD03
:104160004A7900285CD0501C42B23B2AC8BF0020CC
:104170004871B0BD1CF4256F70D01E2293E000BFC3
:10418000013A50B2002848BF172201F1240081F8FB
:104190002620BDE8B04000F059BE00BF013A50B241
:1041A000002848BF3B2201F1240081F82520BDE80A
:1041B000B04000F04BBE00BF501E42B2002A48BFC4
:1041C0003B2001F8240F0846BDE8B04000F03EBE99
:1041D000501E40B2002831DD0C2881F8290000F281
:1041E000A380C0B20122824041F2AA531A421FD0DA
:1041F0001F2027E0013A50B2002848BF632201F196
:10420000240081F82A20BDE8B04000F01FBE00BFA6
:10421000501E42B2002A48BF17200871B0BD00BF2F
:10422000501E42B2002A48BF3B204871B0BD00BFBB
:1042300012F4256F56D01E2004E000BF0C2081F838
:1042400029001F2091F928208242C8BF81F8280048
:1042500001F12400BDE8B04000F0F8BD022A21D1F0
:1042600091F92AC045F629420CFB02F31FFA83FE9E
:104270004FEA9E0242EA833292B21209282A4FF094
:104280001C024FF01C0588BF1D225FEA8C7418BF0A
:104290002A464FEA1E1545EA03339BB2A42B38BFCA
:1042A0001D2200E0002291F8283068B1013358B295
:1042B0009042C8BF012301F1240081F82830BDE8F5
:1042C000B04000F0C3BD00BF581E43B2012BA8BFD1
:1042D0000246134601F1240081F82830BDE8B040C1
:1042E00000F0B4BD02281FD191F92A2045F62940DB
:1042F00002FB00F39DB2A80840EA833080B20009B7
:1043000028284FF01C0088BF1D2092074FEA151285
:1043100042EA03324FF01C0418BF204692B2A42A8E
:1043200038BF1D208EE700BF00208BE710B540F29C
:10433000D801C2F20001884200D010BD40F27004E2
:10434000C2F20004A07888B1E078012817D00028D4
:1043500030D1E07906282DD80121DFE800F02805CA
:1043600021232527330000BF022120E00020A4F8EC
:104370000700FDF7DDFCE060E0780128E7D1207A56
:1043800001289CBF01302072022805D0012811D1DC
:104390000820A07012E000BF0020608010BD00BFA8
:1043A000032104E0042102E0052100E006210130A0
:1043B000A170E071A078002808BF10BDFDF7B8FC1F
:1043C000E06010BD0020A07010BD0000B0B540F24C
:1043D000D801C2F20001884200D0B0BD40F27005A1
:1043E000C2F20005A87810B1FDF7A2FCE860E878F9
:1043F00050B1002029796880082000F0BBF8697965
:10440000092000F0B7F810E040F2071005F12C0485
:104410006880204600F0C8F820460021052200F000
:10442000EBF906A1204600F0A5F9A878002808BFFE
:10443000B0BDFDF77DFCE860B0BD00BF414C41520E
:104440004D000000B0B540F27005C2F20005A97839
:10445000044611B1FDF76CFCE86005F138008442B8
:104460000AD005F15000844218BFB0BD0020BDE85D
:10447000B040FFF7FBBD00BF0120BDE8B040FFF733
:10448000F5BD00007047000010B504460069A18A20
:10449000FDF742FCA178884205D0A0700120E070B1
:1044A000FDF746FC6060E07870B1FDF741FC6168A3
:1044B000401A0F2808D3A07800212070E17061789D
:1044C000884205D120E000BF2078617888421BD067
:1044D00080B1FDF72DFCA168401AB0F57A7F02D8B3
:1044E0002046FFF723FF2046FFF7CCFF0020207374
:1044F00008E000BF012020732046FFF7A3FFFDF76F
:1045000017FCA06020786070207B68B1FDF710FC7C
:10451000A168401A40F6B831884238BF10BD204625
:10452000FFF754FF0020207310BD000001238370AB
:1045300040F20113038001618282704780B584B02C
:10454000024640F210100021C2F2000000688DF80F
:104550000F1001210DF10F034FF0640CCDE9003174
:10456000D0210123CDF808C0FDF78CFF9DF80F0086
:1045700004B080BD80B584B0024640F21010C2F293
:10458000000000688DF80F1001210DF10F034FF0AE
:10459000640CCDE90031D0210123CDF808C0FEF72D
:1045A00021F904B080BD000080B582B0417A436833
:1045B00041F004028DF8042041F014028DF805103A
:1045C0008DF8062041F0100201788DF807204FF099
:1045D000640C01AA18460423CDF800C0FDF768FE5C
:1045E0000120FDF777FA02B080BD000070B582B0FF
:1045F00004460B464160217A5000627A41F0040182
:10460000217242F0340142F0300220708DF8041023
:104610008DF805208DF806108DF807206426C1B2AC
:1046200001AA184604230096FDF742FE607A04238F
:1046300040F034018DF8041040F030018DF8051081
:1046400040F024018DF8061040F0200260682178C7
:104650008DF8072001AA0096FDF72AFE0520FDF738
:1046600039FA607A042340F004018DF8041040F018
:1046700014018DF805008DF8061040F010026068F6
:1046800021788DF8072001AA0096FDF711FE05207C
:10469000FDF720FA607A042340F004018DF804103D
:1046A00040F0C4018DF805008DF8061040F0C002FE
:1046B000606821788DF8072001AA0096FDF7F8FDC3
:1046C0000520FDF707FA607A042340F004018DF815
:1046D000041040F024018DF805008DF8061040F01C
:1046E0002002606821788DF8072001AA0096FDF766
:1046F000DFFD0520FDF7EEF9627A042342F0840124
:1047000042F004008DF8041042F080018DF805108D
:104710008DF80600606821788DF8072001AA0096C0
:10472000FDF7C6FD207A637A20F001016FF07F0269
:10473000217220F00F0042EA011143F0040242EA24
:10474000000518438DF8050042EA01008DF80600C7
:1047500043EA0102606821788DF8072001AA04234A
:104760008DF804500096FDF7A3FD0820607202B09A
:1047700070BD000082B02DE9F04389B003AD04465E
:10478000CDE9102310AA28460292FBF773FDC0B2B0
:1047900060B301380F2828BF0F20461C6F1E4FF052
:1047A00064080DF1200900BF17F8010F617A20F0AD
:1047B0000F0241F0050341F0010143EA02050A43FB
:1047C0008DF8212043EA00128DF8222041EA0012E0
:1047D000606821788DF823204A4604238DF8205004
:1047E000CDF80080FDF764FD013EDDD109B0BDE8E4
:1047F000F04302B07047000080B582B013A3595C4B
:10480000437A114401F0700262F07F0E43F0040C11
:104810004CEA0E028DF804204EEA03028DF80520C2
:104820004CEA01128DF8062043EA01124368017830
:104830008DF807204FF0640C01AA18460423CDF828
:1048400000C0FDF735FD02B080BD00BF004014542C
:1048500092B0FEF7B3F800240120CDE90D44CDE974
:104860000B440C9010200D904FF460100225119015
:1048700008A8CDE909440895CDE90F54FEF750FA90
:1048800020B1EFF3108072B6FEE700BF0F20CDE934
:1048900003054FF48060CDE9060403A802210594C6
:1048A000FEF736F920B1EFF3108072B6FEE700BFD5
:1048B000002541F218000B95C4F20200016840F691
:1048C000000841F0040101600168C4F2010801F030
:1048D0000401039103990168002241F0080101607D
:1048E0000068102100F0080003900398404610264D
:1048F000FDF718FA072008ACCDE908050127404666
:1049000021460A97FDF7FAF802200B90404621460F
:10491000CDE908670A95FDF7F1F840F21410A8F503
:104920003441C2F2000048F2A0624FF48043C0F26A
:10493000010280E82600C0E90353C0E90555C0E93B
:104940000755FDF7FBF928B1EFF3108072B600BFF1
:10495000FEE700BF40F2681008F54051C2F20000C7
:104960000C234FF4165280E82600C0E90355C0E935
:104970000535C561FEF778FE20B1EFF3108072B601
:10498000FEE700BF40F21414C2F200042046FDF717
:104990001BF840F2700BC2F2000B0BF12C094846D9
:1049A00021462722FFF722FE40F2D80AC2F2000A6F
:1049B000504641460122FFF7B9FD0BF13807384652
:1049C00041460222FFF7B2FD0BF15004204641465A
:1049D0000422FFF7ABFD0820FFF7B0FD8BF80400C1
:1049E0000920FFF7ABFD8BF8050040F268100BF1D2
:1049F0000601C2F200000122FEF7EEFE41F2893606
:104A000003E000BF0020ABF802002046FFF73CFDAA
:104A10005046FFF739FD3846FFF736FD9BF8020098
:104A2000411E06293AD200F083FA9BF802000028C2
:104A3000EBD0FDF77DF9DBF80C10401AB042E1D263
:104A40009BF803000028E0D19BF802000028DCD08E
:104A5000DAF81000BAF81410FDF75EF90546FDF714
:104A600067F9BDB9DBF81010401AC928CDD39BF8FF
:104A700002000138C0B2052806D845F6BB11C0F6C1
:104A80000001085C8BF80200FDF752F9CBF80C002E
:104A9000FDF74EF9CBF81000B7E700BFC11F0229A0
:104AA0002AD2FDF745F9DBF82010401AB0F5967FC1
:104AB000BBD340F20C05C2F2000528789BF9042014
:104AC000B0FA80F040099BF9053045F6DA112870FC
:104AD00008A8C0F60001FBF7DFFB287800286BD0A0
:104AE0009BF80200082863D0072865D142F2200015
:104AF000ADF8200060E000BF002898D1FDF718F95C
:104B0000DBF81810401AB0F5FA7F3ED345460BF19A
:104B10002408404600F038F94046A84600F0F6F870
:104B20000546484600210222FFF766FE9BF9262033
:104B30009BF925309BF9246045F6D5114846C0F60F
:104B400000010096FFF716FE484601210022FFF7FC
:104B500053FE9BF9291045F6961205EB45009BF98B
:104B600028309BF92A60C0F60002009145F6C11179
:104B700002444846C0F60001019641F28936FFF72B
:104B8000F9FDFDF7D5F8CBF818009BF804009BF869
:104B9000261081422ED19BF805109BF825209BF80A
:104BA00000008A4208BF002818D040BB3DE700BF84
:104BB00042F22000ADF82300484601210522FFF70C
:104BC0001BFE45F6E4114846C0F6000108AAFFF7AF
:104BD000D1FDFDF7ADF8CBF8200026E740461021C7
:104BE0000122FDF79FF801208BF80000FDF7A0F8E7
:104BF000CBF814009BF8000000283FF416AFFDF737
:104C000097F8DBF81410401A42F2C071C0F20901A3
:104C10008842FFF40AAF404610210022FDF782F8D7
:104C200000208BF8000000E710B58AB027A107220A
:104C30000446FBF75BFD38B126A120460822FBF7AE
:104C400055FD48B30AB010BD05A806A907AA0DF185
:104C5000100CCDE90021029025A109AA08AB20463D
:104C6000CDF80CC0FBF77EFC0628EBD1079A40F28A
:104C700070000999C2F2000000F8242F8170089991
:104C8000069A41700271DDE904214171827100F0E0
:104C9000DDF80AB010BD00BF11A109AA08AB20467B
:104CA000FBF760FC0228CDD140F2700408989DF813
:104CB0002410C2F20004607108202171FFF75AFC31
:104CC00061790920FFF756FC0AB010BD53455454D2
:104CD000494D4500534554414C41524D00000000A0
:104CE000534554414C41524D2C25642C2564000001
:104CF00053455454494D452C25642C25642C25647A
:104D00002C25642C25642C256400000080B590F9C6
:104D10000510172289B248F639634A43C3F6E30304
:104D2000A2FB032C90F90620032902F5FA63194629
:104D300090F9040038BF02F2CF7189B228BF02F2A5
:104D4000CE7318448A0841F27B431FFA80FE5A430F
:104D50000B0940F63E2058430EEB5C0303EB910138
:104D6000A1EB524101EB104044F625110430C2F290
:104D70009241A0FB0112811A02EB51018908A1EBBB
:104D8000C101084480BD000070B584B040F2101528
:104D9000C2F200050446002128688DF80810642638
:104DA00002AAD02101230096FDF782FA28680DF1AE
:104DB0000902D02107230096FDF77CF89DF8090031
:104DC0009DF80A10060906EB860600F00F0000EBBE
:104DD0004600207008099DF80B2000EB800001F0D0
:104DE0000F0101EB4000607010099DF80C3000EBE2
:104DF000800002F00F0101EB4000A070180900EBE9
:104E0000800003F00F0101EB40009DF80D10E070F1
:104E1000080900EB800001F00F0101EB40009DF854
:104E20000E102071080900EB800001F00F0101EB6A
:104E300040009DF80F106071080900EB800001F040
:104E40000F0101EB4000A07104B070BDB0B584B09B
:104E500002784FF0CD0CD4B204FB0CF4E40A04EB5E
:104E600084054378A2EB450242EA04128DF809203A
:104E7000DAB202FB0CF2D20A002102EB82048DF8B6
:104E800008108178A3EB440343EA02128DF80A204C
:104E9000CAB202FB0CF2D20A02EB820390F803E0E2
:104EA000A1EB430141EA02118DF80B105FFA8EF17C
:104EB00001FB0CF1C90A01EB8102AEEB420242EAAE
:104EC000011102798DF80C10D1B201FB0CF1C90A65
:104ED00001EB8103A2EB430242EA011142798DF812
:104EE0000D10D1B201FB0CF1C90A01EB8103A2EB59
:104EF0004302807942EA01118DF80E10C1B201FB24
:104F00000CF1C90A01EB8102A0EB420040EA011159
:104F100040F21010C2F2000000688DF80F106425F6
:104F200002AAD02108230095FDF7C2F904B0B0BD54
:104F3000F0B58BB0FCF7FCFE40F27006C2F2000642
:104F4000F169401AB0F5967F54D340F20D07C2F2D2
:104F50000007387806F12404B0FA80F04009387070
:104F60002046FFF711FF2046FFF7D0FE96F92620D6
:104F700096F9253096F9245045F6D5110446C0F629
:104F8000000107A80095FBF787F945F6961104EB99
:104F90004400C0F6000196F9283096F9295096F998
:104FA0002A400A1845F6C111C0F6000103A8009571
:104FB0000194FBF771F93878F0B106F12C04204622
:104FC00000210222FFF718FC45F6E415C0F60005A3
:104FD00007AA20462946FFF7CDFB204601210022E3
:104FE000FFF70AFC03AA20462946FFF7C3FBFCF79C
:104FF0009FFEF0610BB0F0BDB07801380528DCD819
:10500000DFE800F0040A10161C2200BF42F2200064
:10501000ADF81C00D1E700BF42F22000ADF81F0040
:10502000CBE700BF42F22000ADF82200C5E700BF89
:1050300042F22000ADF80F00BFE700BF42F22000AF
:10504000ADF81200B9E700BF4FF02030CDF81500E1
:10505000B3E75FEA400C08BF91F0000F4FEA8C23E2
:105060004FEAC12243EA51514FEA1C5018BF00F5E4
:10507000F0404FEA300018BF41F000415FEA6C5C3D
:1050800000F02980BCF1FF3F08BF40F0804070472E
:10509000130C06BF12044FF0100C4FF0000C130E4F
:1050A00004BF12020CF1080C130F04BF12010CF123
:1050B000040C930F04BF92000CF1020CD30F04BF39
:1050C00052000CF1010C11464FF00002A0F11F003C
:1050D000A0EB0C00704711F0004F08BF704731F093
:1050E00000413FF4D5AF0B0C06BF09044FF0100C84
:1050F0004FF0000C0B0E04BF09020CF1080C0B0F53
:1051000004BF09010CF1040C8B0F04BF89000CF1E2
:10511000020CCB0F04BF49000CF1010CCCF12003B1
:1051200022FA03F341EA030102FA0CF2A0EB0C00AD
:1051300000F101007047000023F07F4720F07F4C12
:1051400080EA030000F00040ACEB070303F57C535A
:1051500003F1FF032DE9804909B44FEA144324EA1F
:1051600003484FEA154B25EA0B4E0FF2042606EBD7
:1051700013273E7803FB0667C7F5000707FB06F613
:105180004FEAD64606F102064FEA543707FB066C93
:10519000CCF1005C4FEA1C472CEA074C0CFB06F5EF
:1051A00007FB06F404EB15464FEA961649085FEA3A
:1051B000320234BF00204FF000404FEAD13706FBE7
:1051C00007FC4FEA1C4C0CFB0BF7D21B03FB0CF744
:1051D00061EB07010CFB0EF7B0EB074072EB1742D7
:1051E0000CFB08F734BFA2EB0742B2EB074261EBBE
:1051F00017414FEA0C444FEA910706FB07FC4FEAC0
:105200001C4C0CFB0BF7B0EBC74072EB573203FBA7
:105210000CF734BFA2EBC742B2EBC74261EB573188
:105220000CFB0EF7B0EBC70072EB57720CFB08F7E4
:1052300034BFA2EBC702B2EBC70261EB57714FEA72
:10524000816141EA92114FEA826242EA90124FEA8A
:10525000806004EBCC04039F4FEAD13706FB07FCC8
:105260004FEA1C4C0CFB0BF7D21B03FB0CF761EB5A
:1052700007010CFB0EF7B0EB074072EB17420CFB7B
:1052800008F734BFA2EB0742B2EB074261EB1741CC
:105290004FEA8C5504EB9C244FEA910706FB07FC70
:1052A0004FEA1C4C0CFB0BF7B0EBC74072EB5732CC
:1052B00003FB0CF734BFA2EBC742B2EBC74261EB72
:1052C00057310CFB0EF7B0EBC70072EB57720CFBBB
:1052D00008F734BFA2EBC702B2EBC70261EB57710C
:1052E0004FEA816141EA92114FEA826242EA9012EA
:1052F0004FEA806015EB4C2544F100044FEAD137AA
:1053000006FB07FC4FEA1C4C0CFB0BF7D21B03FB04
:105310000CF761EB07010CFB0EF7B0EB074072EBEB
:1053200017420CFB08F734BFA2EB0742B2EB07426F
:1053300061EB17414FEA813141EA92414FEA8232F3
:1053400042EA90424FEA80304FEA0C7615EB1C158A
:1053500044F1000448EA03434EEA0B484FF0000EC4
:10536000B2EB080C71EB030724BF624639464EEBE3
:105370000E0E4FF0000B0018524149414BEB0B0B46
:10538000B2EB080C71EB03077BF1000B24BF624604
:1053900039464EEB0E0E4FF0000B001852414941BA
:1053A0004BEB0B0BB2EB080C71EB03077BF1000B23
:1053B00024BF624639464EEB0E0E51EA020718BF73
:1053C00046F0010616EB0E7655F1000254F100018D
:1053D00003D5BDE88901BDE80088BDE88901BDE8C5
:1053E0000048B619524141EB0101A3F10103704796
:1053F00080807F7E7D7C7B7A797877767675747312
:10540000727171706F6E6E6D6C6C6B6A6A696868D0
:10541000676666656464636362616160605F5F5E66
:105420005E5D5D5C5C5B5B5A5A59595858575756DC
:105430005655555554545353525252515150505041
:105440004F4F4F4E4E4D4D4D4C4C4C4B4B4B4A4A93
:105450004A494949484848474747474646464545D7
:105460004544444444434343434242424241414110
:105470009C46002B30D477002BD04FEA37071CB561
:1054800003B44FF010004FF01001BAF1000F06D036
:10549000BCF1000FDCBF40F0080040F008014FF005
:1054A00000000FBCBDE810400BF1010BBBF1010F78
:1054B00008BF5FEA170722BF12F1010211F10101D3
:1054C0004FF0004143F1000300F0004043EA0000C8
:1054D0007047F9D35708D0E746EA06464FEA164622
:1054E00013F1400F1FDD13F1200FDFBF16430A46F3
:1054F000002120335B42BED0C3F1200746EA0646B6
:105500004FEA164602FA07F746EA070622FA03F2BE
:10551000C3F1200701FA07F742EA070221FA03F173
:105520004FF00003A7E746EA020646EA06464FEABE
:10553000164646EA0106BCBF46EA0646360C4FF060
:1055400000034FF000024FF0000194E72DE9804C7A
:1055500070B49A46934691E8380007C831EA400C87
:1055600048BF34EA430C03D5FFF7E6FDFFF780FFA1
:10557000F0BCBDE8008C2DE9804C70B49A4693468F
:1055800091E8380007C810F0804F08BF13F0804F33
:1055900003D100F005F8FFF76BFFF0BCBDE8008C0D
:1055A00020F07F4723F07F4C80EA030000F00040AA
:1055B00007EB0C03A3F57C53A3F1FE0392F0000F5D
:1055C00000F0B38095F0000F00F077802DE90149DD
:1055D0004FEA114021EA00484FEA144624EA064700
:1055E00000FB06FC08FB06F607FB08F818EB06486C
:1055F0004CEB164C00FB07F718EB07484CEB174039
:105600004FEA124B22EA0B4E4FEA154625EA0647AF
:105610000BFB06FC0EFB06F607FB0EFE1EEB064E12
:105620004CEB164C0BFB07F71EEB074E4CEB174BE6
:1056300018EB0B0840F1000018EB0E0B58EB0008BC
:1056400040F100008F1A4FF000014FF000063CBF00
:10565000C943661B14BFB5EB040C00213CBFC94312
:10566000F61B4FEA174427EA04454FEA1C472CEA89
:10567000074C04FB076205FB07F70CFB05F616EB6E
:10568000074642EB174204FB0CFC16EB0C4642EBC0
:105690001C421BEB060658EB020241414EEA8E0EFD
:1056A00046EA9E0601D5BDE80189B619524141EB93
:1056B0000101A3F10103BDE801894FEA144524EA81
:1056C00005464FEA114721EA074C05FB07F406FBA4
:1056D00007F70CFB06F111EB074144EB174405FB00
:1056E0000CFC11EB0C4144EB1C444FEA124722EA3C
:1056F000074C05FB07F206FB07F70CFB06F616EB5B
:10570000074642EB174205FB0CFC16EB0C4642EB3E
:105710001C456A1854F1000148BF7047B619524140
:1057200041EB0101A3F10103704795F0000F37D061
:105730004FEA114221EA02464FEA144724EA074C95
:1057400002FB07F106FB07F70CFB06F414EB07441A
:1057500041EB174102FB0CFC14EB0C4441EB1C41E8
:105760004FEA154725EA074C02FB07F506FB07F74A
:105770000CFB06F616EB074645EB174502FB0CFC47
:1057800016EB0C4645EB1C42121951F1000148BFC3
:105790007047B619524141EB0101A3F10103704773
:1057A0004FEA144524EA05464FEA114721EA074C1F
:1057B00005FB07F106FB07F70CFB06F212EB0742AD
:1057C00041EB174105FB0CFC12EB0C4251EB1C4169
:1057D0004FF0000648BF7047921841EB0101A3F15A
:1057E00001037047490050EAC12018BF04204A0D48
:1057F00018BF40F0010040F2FF72B2EB515F08BFEA
:1058000040F00200012808BF0520704730380A2800
:1058100001D20120704700207047000010B5002918
:105820000AD00878002807D005487844FCF782F8A9
:10583000002801D0002010BD0248784410BD0000AF
:10584000DE010000D601000010B500290AD008785A
:10585000002807D005487844FCF76CF8002801D0F0
:10586000002010BD0248784410BD0000CE010000A9
:10587000C6010000FBF7C4BAFBF7F8BB0400000840
:105880000000000000000002000100001000000005
:10589000000000000000000030313233343536376C
:1058A0003839414243444546403058003031323364
:1058B0003435363738396162636465664030780064
:1058C0003031323334353637383961626364656676
:1058D000787000303132333435363738394142430D
:1058E000444546585000000002400000000000A05F
:1058F0000000000005400000000000C8000000009B
:105900000C4000000000409C000000001940000016
:105910000020BCBE0000000034400000BFC91B8E48
:1059200000000004B5400000504BCFD06607E2CF26
:10593000010000006C4100003E8251AADFEEA73456
:1059400001000000D9420000DCB5A0E23A301F9708
:10595000FFFFFFFFB4450000FD25A0C8E9A3C14F2C
:10596000FFFFFFFFFF3F000000000080000000007D
:10597000FF3F000000000080000000000000000069
:1059800000000000010203040607080900000000EF
:105990000102030401025432005433005434005411
:1059A0003500543600543700434E00020304050608
:1059B0000708090A0B0C0D0E0F1010020304050650
:1059C00000257320253032642F253032642F323089
:1059D0002530326400253032643A253032643A256D
:1059E0003032640025730000385B0008000000209E
:1059F0001000000028010008485B0008100000208B
:105A0000A8070000440100081C000000430000003B
:105A1000F8FFFFFF0C0000000E0000000F00000068
:105A20002E0000001001000043000000F8FFFFFFFF
:105A300000404040404040404040414141414140A1
:105A40004040404040404040404040404040404056
:105A500040050202020202020202020202020202E5
:105A600002202020202020202020200202020202EA
:105A70000202909090909090101010101010101042
:105A8000101010101010101010101010020202024E
:105A90000202888888888888080808080808080892
:105AA000080808080808080808080808020202028E
:105AB00040000000000000000000000000000000A6
:105AC00000000000000000000000000000000000D6
:105AD00000000000000000000000000000000000C6
